:020000040800F2
:10000000601200207902000863210008D11F000857
:10001000612100086F04000831280008000000007A
:100020000000000000000000000000006721000840
:100030007104000800000000652100086921000823
:10004000930200089302000893020008930200083C
:10005000930200089302000893020008930200082C
:10006000930200089302000893020008930200081C
:10007000930200089302000893020008930200080C
:100080009302000800000000930200089302000899
:100090009302000879040008930200089302000804
:1000A00093020008930200089302000893020008DC
:1000B00093020008E521000893020008930200085B
:1000C00093020008930200089302000893020008BC
:1000D00093020008930200089302000893020008AC
:1000E000930200089302000893020008930200089C
:1000F0009302000893020008930200080000000029
:1001000000000000930200080000000093020008B5
:100110009302000800000000930200089302000808
:10012000930200089302000893020008930200085B
:100130009302000800000000000000009302000885
:100140009302000893020008000000000000000075
:10015000000000000000000000000000000000009F
:1001600000000000000000000000000093020008F2
:1001700093020008000000000000000000000000E2
:1001800000000000930200080000000000000000D2
:10019000000000000000000000000000000000005F
:1001A0000000000000000000930200089302000815
:1001B0009302000893020008930200080000000068
:1001C0000000000093020008000000000000000092
:1001D000930200089302000800F002F800F03CF8D7
:1001E0000AA090E8000C82448344AAF10107DA4592
:1001F00001D100F031F8AFF2090EBAE80F0013F0A8
:10020000010F18BFFB1A43F001031847B42C00007C
:10021000D42C0000103A24BF78C878C1FAD852070D
:1002200024BF30C830C144BF04680C607047000070
:100230000023002400250026103A28BF78C1FBD8EF
:10024000520728BF30C148BF0B6070471FB502F08E
:1002500009FE1FBD10B510BD00F0CFF81146FFF725
:10026000F5FF02F00DFC00F0EDF803B4FFF7F2FF2C
:1002700003BC00F0F5F80000094880470948004732
:10028000FEE7FEE7FEE7FEE7FEE7FEE7FEE7FEE746
:10029000FEE7FEE704480549054A064B70470000A3
:1002A000D5210008D9010008600C00206012002050
:1002B000600E0020600E002053EA020C00F06980FE
:1002C0002DE9F04B4FF00006002B1FBFB3FA83F56A
:1002D00003FA05F424FA05F65E4012BF1643B2FA9B
:1002E00082F502FA05F4C5F120051EBF22FA05FCCD
:1002F00044EA0C04203556EA044C4FEA144418BF73
:10030000641C4FF000084FF00009904271EB030CA1
:1003100039D3002919BFB1FA81F701FA07F6B0FA0B
:1003200080F700FA07F6C7F120071EBF20FA07FC86
:1003300046EA0C062037B6FBF4FCA7EB0507103F96
:1003400007F01F0BCBF120060CFA0BFB2CFA06F67C
:1003500044BFB3460026202FA4BF5E464FF0000BDB
:100360005BEA060C08BF4FF0010B19EB0B09ABFB66
:10037000027C48EB0608C01B06FB02CC0BFB03CC3F
:1003800071EB0C01C1E70B46024641464846BDE809
:10039000F08B13B54FF000004FF00001AFF3008079
:1003A000BDE81C4070474FF0000200B5134694466C
:1003B0009646203922BFA0E80C50A0E80C50B1F1BD
:1003C0002001BFF4F7AF090728BFA0E80C5048BFD1
:1003D0000CC05DF804EB890028BF40F8042B08BF6F
:1003E000704748BF20F8022B11F0804F18BF00F86B
:1003F000012B7047704770477047754600F02CF826
:10040000AE4605006946534620F00700854618B001
:1004100020B5FFF73FFFBDE820404FF000064FF04A
:1004200000074FF000084FF0000B21F00701AC4629
:10043000ACE8C009ACE8C009ACE8C009ACE8C00948
:100440008D46704710B50446AFF300802046BDE8E6
:100450001040FFF70ABF000000487047FC0B002067
:1004600001491820ABBEFEE7260002007047FEE7F8
:10047000704772B6FEE70000014800F0BAB900000C
:1004800018000020F0B5D1E901650C692C430D6816
:10049000C6B145F080452C43D1E90665354391F856
:1004A00020704E69406D46EA076635438E8903EB3E
:1004B000C30300EBC30045EA0645E0E8024500231C
:1004C000084C0AE044EA8544E6E7D618D55CD6F83D
:1004D00001601B1D45EA062520C0CD68655D9D4273
:1004E000F3D8F0BD6E2E000870B5044600F0CEFCC7
:1004F0000546601C02D004484068044400F0C6FC75
:10050000401BA042FAD370BD0800002030B590F81F
:100510005C30012B07D0022B05D0016E41F00201A7
:100520000166012030BD0468A36D4D0701D0DD07D1
:100530001DD011F0380F01D09D0718D511F4E07FC0
:1005400001D05D0713D511F4F05F01D01D070ED562
:1005500011F4604F01D0DD0609D511F4403F01D000
:100560009D0604D511F47C0F05D05D0603D4E56D1E
:1005700045F00105E5654C0701D0DC071DD111F000
:10058000380F01D09C0718D411F4E07F01D05C072C
:1005900013D411F4F05F01D01C070ED411F4604F96
:1005A00001D0DC0609D411F4403F01D09C0604D4EC
:1005B00011F47C0F06D05B0604D50368DC6D44F0B3
:1005C0000204DC650B0604D5036853F8DC4F1443C2
:1005D0001C60CB0504D5036853F8E04F14431C603E
:1005E0000068426D0A434265002030BD70B5044684
:1005F00090F85C00022803D0206E40F0080007E06D
:100600002068D0F8C4309B0205D5206E40F40070FD
:100610002066012070BDD0F8C400C0F301452B4610
:100620002046FFF72FFF21680120A840C1F8CC0029
:10063000A065002070BD10B590F85C20012A07D09D
:10064000022A05D0016E41F002010166012010BDB1
:100650000A687AB10B7B0A690C7A42EA43734A69E9
:10066000406C496842EA847200EBC100C0E9003284
:10067000002010BD0B7A4A690C8A42EA83720B7B18
:10068000006CDB06496843EA04431A4340F8212022
:10069000EEE730B590F85C50039C012D05D0016E5B
:1006A00041F004010166012030BD0901006841EA02
:1006B000820141EA430150F8802F214322F03F029A
:1006C00011430160002030BD7047090304D5006864
:1006D000816921F00101816170470000F0B590F857
:1006E0005C400025022C03D0016E41F0080160E05F
:1006F0000468402946D0D4F89860360756D0D4F81C
:100700009860F60104D5D4F88060F60500D501257F
:10071000D4F89840C4F301246619C46C06EBC605EE
:1007200004EBC504256815F080455560256843D065
:1007300025F06045156025682C4F05F00055956043
:1007400020CC05F00045156134F8045BADB2D561ED
:1007500054F8045CC5F30345D56054F8045C05F413
:100760008015556154F8045C05F40015956154F842
:10077000045CC5F30665156254F8045CED0F556220
:10078000002522E0D4F8906036070FD0D4F89060AE
:10079000F60104D5D4F88060B60500D50125D4F85B
:1007A0009040C4F301246619846CB7E7016E41F4EC
:1007B000807101660120F0BDC5F38A45BAE700BF2C
:1007C00014F805C003F805C06D1CD2F80CC017F86A
:1007D0000CC0AC45F4D80068402903D0C0F89C6038
:1007E0000020F0BDC0F89460FAE700006E2E00080B
:1007F00070472DE9F05F04460068016D426D01F419
:10080000E05102EA0108016D426D01F0070102EAC0
:100810000109016D426D01F0380102EA010A016D22
:10082000476D01F471010F40016D426D01F46021CB
:10083000456D02EA010B016DCE43710607D4E94311
:10084000490604D4402101652046FFF7D1FFF00599
:100850000ED4E843C0050BD42068D0F8D820D0F8D7
:10086000E01011404FF480720265204600F0DFF97D
:10087000B8F1000005D0216808654146204600F027
:10088000D8F9B9F1000005D021680865494620462D
:1008900000F0AAF9BAF1000005D0216808655146B8
:1008A000204600F0ABF9B00509D4E843800506D432
:1008B00021684FF400700865204600F0BBF930064F
:1008C0000DD4E84300060AD42068D0F8D420D0F82C
:1008D000DC10114080220265204600F0A9F9B00426
:1008E00009D4E843800406D421684FF40050086519
:1008F000204600F09BF9300409D4E843000406D4F4
:1009000021684FF400400865204600F08EF970041D
:100910000AD4E843400407D421684FF480400865B6
:10092000206E40F080002066BBF1000005D02168F9
:10093000086559462046FFF7C8FE27B120680765BD
:10094000206E38432066206E002802D02046FFF734
:10095000BBFEBDE8F09F00002DE9F041040006D089
:10096000DFF8E88194F85C00002518B107E0012069
:10097000BDE8F08184F85D50204600F0EFF8206873
:10098000816921F01001816100F080FA0646032799
:1009900005E000BF00F07AFA801B0A2811D8206811
:1009A00080690007F6D42068816941F00101816106
:1009B00000F06CFA06460BE000F068FA801B0A288B
:1009C00006D9206E40F00100206684F85C70CEE706
:1009D00020688069C007EFD02068816941F002017A
:1009E00081612168414502D1594960680860207CD5
:1009F00001282068816937D041F040018161607C25
:100A000001282068816932D021F480418161A07C75
:100A10000128206881692DD041F4805181612068CE
:100A20008169A26821F44071114381612068816964
:100A300021F0A40181612068016921F010010161A8
:100A4000E068012819D010B302281BD02068816902
:100A500041F0800181612068016941F0100101616C
:100A6000E06803280ED012E021F04001C6E741F40F
:100A70008041CBE721F48051D0E72068816941F0C3
:100A8000040103E02068816941F020018161207E3A
:100A9000E26940066FF0FF0101EB0222A0F1007055
:100AA0001043226AA38A521E10430A0202EB034338
:100AB00018432368D861A068B0F5407F10D1D4E90D
:100AC0000A0301EB0321401E0843216B131303EBC0
:100AD00001110843A18C02EB014108432168C86061
:100AE000206850F8C01FE26B114301601948206470
:100AF000216851F8802FA38E22F4F81242EA0342B3
:100B00000A60144970316164216851F8802F94F8AB
:100B1000383022F0706242EA03620A600D49B03157
:100B2000A1640D49E1640C49D83121650A49F031CD
:100B3000616500F5547120C08842FCD3A565256627
:100B4000012084F85C00002012E7000000640040EF
:100B50000065004000A4004088A5004010B598B092
:100B60000446142111A8FFF71EFC44216846FFF734
:100B70001AFC1B492068884230D180140090000381
:100B80000C90684600F080FA08B1FFF772FC154837
:100B9000816D41F000718165816D01F000711691E8
:100BA000C16C41F00101C164C06C11A900F00100E9
:100BB00016904FF4C0501190022012900020139014
:100BC000149009201590C00600F036F80022052187
:100BD000152000F0C1F9152000F0B0F918B010BDD3
:100BE0000064004000100240034910B5884201D162
:100BF00001F0D0FE10BD000018000020704790F8F2
:100C00005C10012905D0016E41F00401016601204C
:100C10007047022180F85C1001688A6922F00102A5
:100C20008A61002101660846704770477047704727
:100C300070477047704700002DE9F04FDFF82092B1
:100C4000002301260324A9F1040B85B00F2709F125
:100C5000040AABF1040EFAE006FA03F52A407CD050
:100C600091F804C00CF0030CBCF1010F02D0BCF1F0
:100C7000020F26D1D0F808C0CDF800C04FEA430CCF
:100C800004FA0CF8CDF810C0DDF800C02CEA080C0E
:100C9000CDF800C0D1F80C80DDF810C008FA0CF8CF
:100CA000DDF800C048EA0C08C0F80880D0F804C09D
:100CB0002CEA050C0D79C5F300159D4045EA0C059D
:100CC00045600D79ED43AD070ED0C5684FEA430886
:100CD00004FA08FC25EA0C05D1F808C00CFA08FC57
:100CE0004CEA050CC0F80CC00D7905F00305022D87
:100CF00016D1DD0800EB850CCDF808C0DCF82080AB
:100D00005D074FEAD56C07FA0CF528EA05080D696E
:100D100005FA0CF5DDF808C045EA0805CCF82050C6
:100D200005684FEA430CCDF808C004FA0CFC25EA2C
:100D30000C0591F804C00CF00308DDF808C008FAAF
:100D40000CF848EA0508C0F800804D6815F4403FEB
:100D50007CD0444DD5F860C000E077E04CF0010C49
:100D6000C5F860C02D6E23F0030C05F00105009559
:100D70003D4D65440295AD684FEA837C4FEA1C788F
:100D800007FA08FC25EA0C05B0F1904F06D0DFF811
:100D9000DCC0604505D14FF0010C20E04FF0000CA5
:100DA0001DE0DFF8CCC0604502D14FF0020C16E028
:100DB000DFF8C0C0604502D14FF0030C0FE0DFF850
:100DC000B8C0604502D14FF0040C08E0DFF8ACC0B9
:100DD000604502D14FF0050C01E04FF0060C0CFA13
:100DE00008FC4CEA050C029DC5F808C0D9F8005073
:100DF000CC46D1F8048095435FEAC82800D5154356
:100E0000CCF80050DAF80050D446D1F8048095436D
:100E10005FEA882800D51543CCF80050DBF8005075
:100E2000DC46D1F8048095435FEA883800D5154345
:100E3000CCF80050DEF80050F446D1F80480954319
:100E40005FEAC83800D51543CCF800505B1C0A682F
:100E500032FA03F57FF400AF05B0BDE8F08F000073
:100E60000804014000100240000001400004004856
:100E700000080048000C004800100048001400481A
:100E80000AB1816170478162704700000148806843
:100E90007047000008000020024881684268114441
:100EA000816070470800002010B50024032000F086
:100EB00073F80F2000F008F808B1012401E000F0F9
:100EC00025F8204610BD000070B50E4E05460024E2
:100ED000706898B14FF47A71B1FBF0F00A49096873
:100EE000B1FBF0F000F05EFD40B9102D06D20022FB
:100EF0002946501E00F030F8356000E001242046FD
:100F000070BD000008000020140000200A4882B0D4
:100F1000016E41F001010166016E01F001010091D5
:100F2000816D41F080518165806D00F080500090AE
:100F300002B000F0A1B8000000100240002809DB58
:100F400000F01F02012191404009800000F1E020E3
:100F5000C0F8001170470000F0B40E4B1B680C463F
:100F6000C3F30223C3F10705042D00D90425191D7D
:100F7000072901D2002300E0DB1E012606FA05F155
:100F8000491E214099409E40761E16403143F0BCD8
:100F900001F04FBC0CED00E0064900F007020868C4
:100FA0004FF6FF03184040EA0220034A104308604E
:100FB000704700000CED00E00000FA052B492C4BB7
:100FC0000A6832214A432B4940B1B0F5007F0868D6
:100FD00029D020F4C06040F480602CE00868C0F3A1
:100FE0004120022804D051F8800F20F4807022E0C4
:100FF000D1F8800020F48070C1F88000086820F4E7
:10100000C06040F400700860B2FBF3F0401C00E0E8
:10101000401E4A69520501D50028F9D148694005AA
:101020000AD503207047C0F34120022806D051F8AA
:10103000800F40F48070086000207047D1F8800075
:1010400040F48070C1F88000086820F4C06040F46B
:1010500000700860B2FBF3F0401C00E0401E4A69DB
:101060005205DBD50028F9D1D8E700001400002094
:1010700040420F00007000400248816841F4804106
:1010800081607047007000402DE9F8430446006815
:1010900000269D4D00035ED5A86D0027C00008D432
:1010A000A86D40F08050A865A86D012700F0805021
:1010B0000090DFF85892D9F8001041F48071C9F817
:1010C0000010FFF7E3FE804606E000BFFFF7DEFEFC
:1010D000A0EB080002282BD8D9F80000C005F5D5F0
:1010E000D5F8900010F4407014D0216C814211D0DA
:1010F000D5F89000D5F8901020F4407041F480317C
:10110000C5F89010D5F8901021F48031C5F89010F2
:10111000C5F89000C00711D0FFF7B8FE804641F235
:10112000883907E0FFF7B2FEA0EB0801494501D975
:1011300003260BE0D5F890008007F3D5D5F8900092
:10114000216C20F440700843C5F890001FB1A86DD1
:1011500020F08050A8652078C00707D0D5F8880017
:10116000616820F003000843C5F8880020788007F4
:1011700007D5D5F88800A16820F00C000843C5F811
:1011800088002078400707D5D5F88800E16820F06E
:1011900030000843C5F888002078000707D5D5F847
:1011A0008800216920F0C0000843C5F88800207835
:1011B000800607D5D5F88800616920F440600843AF
:1011C000C5F888002078400607D5D5F88800A169C1
:1011D00020F440500843C5F888002078000607D561
:1011E000D5F88800E16920F440400843C5F888003C
:1011F0002088C00507D5D5F88800216A20F4403042
:101200000843C5F888002088800507D5D5F88800F0
:10121000616A20F440200843C5F888002088400512
:101220000FD5D5F88800A16A20F440100843C5F80E
:101230008800A06AB0F5801F03D1E86840F48010F0
:10124000E860208800050FD5D5F88800E16A20F411
:1012500040000843C5F88800E06AB0F5800F03D16C
:10126000E86840F48010E8602088C0040FD5D5F805
:101270008800216B20F040700843C5F88800206B7F
:10128000B0F1807F03D1E86840F48010E8602088E6
:101290004FF0006180040ED5D5F88800626B20F015
:1012A00040601043C5F88800606B884203D1E8684D
:1012B00040F48010E860208840040ED5D5F88800FE
:1012C000A26B20F040601043C5F88800A06B8842F4
:1012D00003D1E86840F48010E860208800040FD54E
:1012E000D5F88800E16B20F040500843C5F888002D
:1012F000E06BB0F1805F03D1E86840F48030E860D3
:101300003046BDE8F8830000001002400070004045
:101310002DE9F0470E4605004FF0000725D0DFF815
:10132000AC81D8F8000000F00F00B0420CD2D8F821
:10133000001021F00F013143C8F80010D8F8000068
:1013400000F00F00B04210D12968614CC80741F28B
:10135000883A5AD06868DFF87C91032808D00228C0
:1013600020682DD0400500282CDB0120BDE8F08747
:1013700020688001F9D5E06800F00302E068C0F35E
:101380000310401C032A19D0534A00BFB2FBF0F0EF
:10139000E268C2F306225043E268C2F34162521C83
:1013A0005200B0FBF2F0484517D9A06810F0F00FDA
:1013B0000CD0880711D5A86840B10EE0474AE5E790
:1013C0008003D0E700F0B6F8484506D9A06820F0C1
:1013D000F00040F08000A0608027A068696820F0DD
:1013E00003000843A060FFF751FD814606E000BFFF
:1013F000FFF74CFDA0EB090151453AD8A068696898
:1014000000F00C00B0EB810FF2D12868810714D5F1
:10141000400703D5A06840F4E060A060287800078A
:1014200005D5A06820F4605040F4E060A060A0689A
:10143000A96820F0F000084304E0802F03D1A068E1
:1014400020F0F000A060D8F80010404601F00F0135
:10145000B14216D9016821F00F0131430160FFF755
:1014600015FD074607E000BFFFF710FDC11B514502
:1014700001D903207AE7D8F8000000F00F00B0424D
:10148000F2D12878400705D5A068E96820F4E0602B
:101490000843A0602878000706D5A068296920F4D1
:1014A000605040EAC100A06000F044F8A1680C4A16
:1014B000C1F30311515C01F01F01C84009490860E4
:1014C00009480068BDE8F047FFF7FEBC0020024075
:1014D0000010024000B4C4040024F40000127A009A
:1014E000A62E000814000020080000200548064928
:1014F00000688968054AC1F30221515C01F01F01AF
:10150000C84070471400002000100240B62E0008AA
:101510000548064900688968054AC1F3C221515C43
:1015200001F01F01C8407047140000200010024065
:10153000B62E0008184910B58868C0F38102174814
:10154000012A0BD08A684310C2F38102022A06D016
:101550008A68C2F38102032A03D0002010BD184616
:1015600010BDCA6802F00304CA68C2F30312521C19
:10157000032C02D0B0FBF2F001E0B3FBF2F0CA683A
:10158000C968C2F306225043C1F34161491C4900B6
:10159000B0FBF1F010BD0000001002400024F40088
:1015A0002DE9F84304007AD02078F84DC00747D0E1
:1015B000A868E96800F00C0001F003010C2802D0D3
:1015C000082817D001E0032914D06068B0F5803FE7
:1015D00017D0B0F5A02F286817D020F480302860ED
:1015E000286820F4802028606068E0B1FFF74EFC96
:1015F000064614E02868800322D560680028D2D00F
:101600001EE0286840F48030EDE740F48020286038
:10161000F7E700BFFFF73AFC801B642870D8286802
:101620008003F7D50CE0FFF731FC064605E000BF6C
:10163000FFF72CFC801B6428F0D828688003F7D4BF
:10164000207880074CD5A868E96800F00C0001F00C
:1016500003010C2802D004280DD001E002290AD091
:10166000E068002828682BD040F480702860FFF7DD
:101670000DFC064619E02868400502D5E068002800
:1016800091D06868217C20F0FE4040EA01606860EB
:10169000BF480068FFF718FC002800D120E072E185
:1016A000FFF7F4FB801B0228B8D828684005F7D55F
:1016B0006868217C20F0FE4040EA016068600FE02D
:1016C00020F480702860FFF7E1FB064605E000BFCC
:1016D000FFF7DCFB801B0228A0D828684005F7D460
:1016E0002078000729D560690028D5F8940013D028
:1016F00040F00100C5F89400FFF7C8FB064606E07D
:1017000090E000BFFFF7C2FB801B022886D8D5F807
:1017100094008007F6D510E020F00100C5F8940091
:10172000FFF7B4FB064604E0FFF7B0FB801B02287E
:1017300078D8D5F894008007F6D42078400761D592
:10174000A86D0026C00008D4A86D40F08050A865A0
:10175000A86D012600F0805000908E480168C905F0
:1017600011D40168804641F480710160FFF78EFB5F
:10177000074604E0FFF78AFBC01B022852D8D8F8BE
:101780000000C005F6D5A068012815D00528D5F8B9
:10179000900016D020F00100C5F89000D5F8900018
:1017A00020F00400C5F89000A06841F28838B8B174
:1017B000FFF76CFB07460EE0D5F8900040F0010003
:1017C000F0E740F00400C5F89000F5E7FFF75EFB96
:1017D000C11B414526D8D5F890008007F6D50CE00E
:1017E000FFF754FB074604E0FFF750FBC11B4145E0
:1017F00018D8D5F890008007F6D41EB1A86D20F057
:101800008050A8652078800629D5A0690028D5F8E1
:10181000980013D040F00100C5F89800FFF736FBA0
:10182000064606E075E000BFFFF730FB801B02288C
:101830006FD8D5F898008007F6D510E020F00100A9
:10184000C5F89800FFF722FB064604E0FFF71EFBF1
:10185000801B02285DD8D5F898008007F6D4E0698F
:10186000F0B3A968C1F3810103295DD0022828687B
:1018700020F08070286003D0FFF708FB04464BE09F
:10188000FFF704FB064604E0FFF700FB801B02287D
:101890003FD828688001F7D4F4E908016FF00F02FF
:1018A00002EB01110843218A5204490802EB41511D
:1018B000A26841EA02210843217D4FF07E42490897
:1018C00002EB41610843217B40EAC160E968324A8A
:1018D00011400843E860286840F08070286000E00C
:1018E0005EE0E86840F08070E860FFF7CFFA0446F9
:1018F00005E000BFFFF7CAFA001B022809D82868D4
:101900008001F7D54CE000BFFFF7C0FA001B0228AA
:1019100002D90320BDE8F88328688001F4D4E86880
:101920001E490840E8603BE00128F3D0E868226ADD
:1019300000F00301914226D1616A00F0F002090132
:10194000103991421FD1A26A00F4FE41B1EB022F7F
:1019500019D194F82C2000F07841B1EBC26F12D16C
:10196000218E00F4C00249084905A1F500119142F9
:1019700009D194F8341000F0C06049084906A1F17B
:10198000007181420CD00120C4E700000010024029
:1019900008000020007000400C809F01FCFFEEFE5C
:1019A0000020B7E710B5401EB0F1807F01D30120C1
:1019B00010BD4FF0E02460610F21601700F039FF87
:1019C0000020A06107202061002010BD70477047F3
:1019D0007047704770477047F0B590F83C20012A77
:1019E0003AD0012580F83C50022280F83D2003685F
:1019F0005A689C68194E1A4FB34201D0BB4204D1B9
:101A000022F4700C4A6842EA0C02DFF858C002EA7D
:101A10000C02D1F800C04CEA020CC3F804C0026802
:101A2000B2420DD0B2F1804F0AD00F4B9A4207D08C
:101A30000E4B9A4204D0BA4202D00D4B9A4204D1C6
:101A4000896824F080031943916080F83D5000219B
:101A500080F83C100846F0BD0220F0BD002C01408B
:101A6000003401408FFFFFFD0004004000080040EB
:101A700000400140704710B5040003D094F83D00C9
:101A800010B107E0012010BD002084F83C00204682
:101A900000F022F8022084F83D00211D206800F0AB
:101AA000A7FB012084F8480084F83E0084F83F003A
:101AB00084F8400084F8410084F8420084F8430030
:101AC00084F8440084F8450084F8460084F8470010
:101AD00084F83D00002010BD10B586B004461421E6
:101AE0006846FEF760FC15492068884224D11448F6
:101AF000816D41F002018165816D01F00201059166
:101B0000C16C41F00201C164C06C002100F0020010
:101B10000590012000900220CDE90101CDE90310DC
:101B200069460848FFF788F8002211461D20FFF794
:101B300013FA1D20FFF702FA06B010BD00040040A2
:101B4000001002400004004870B5044690F83C00C4
:101B50000025012814D0012684F83C60022084F876
:101B60003D0022689068364B184020F47F4090601A
:101B7000086870282ED010DC10F00F0F03D021E081
:101B80004FF0020070BD4FEA2012072A1AD2DFE898
:101B900002F0525252524A3840002A4BC21A98421E
:101BA00049D009DCB0F5805F0DD0B0F5005F1CD0E6
:101BB000B0F1101F06D13EE0102A3CD0202A3AD0C6
:101BC000502A38D0012584F83D60002084F83C007C
:101BD000284670BDCB68D1E90121206800F066FB82
:101BE0002068816841F0770109E0CB68D1E90121E3
:101BF000206800F05BFB2068816841F480418160CF
:101C0000E1E7CA684968206800F064FB5021206859
:101C100006E0CA684968206800F06DFB6021206812
:101C200000F04EFBCFE7CA684968206800F052FB1D
:101C300040212068F4E7226801461046F0E70000E2
:101C400088FFCEFF2000100070472DE9F0410446C8
:101C50000068C66805694FF00007A90713D5B107EA
:101C600011D5F91E01610120207720688069800765
:101C7000204602D0FFF7E8FF04E000F0B7F8204666
:101C800000F0B5F82777680716D5700714D52168D6
:101C90006FF004000861022020772068806910F44A
:101CA000407F204602D0FFF7CFFF04E000F09EF80F
:101CB000204600F09CF82777280715D5300713D564
:101CC00021686FF008000861042020772068C0694F
:101CD0008007204602D0FFF7B7FF04E000F086F847
:101CE000204600F084F82777E80616D5F00614D5CC
:101CF00021686FF010000861082020772068C06913
:101D000010F4407F204602D0FFF79EFF04E000F071
:101D10006DF8204600F06BF82777E80708D0F00749
:101D200006D021686FF001000861204600F060F8DD
:101D3000280601D4A80408D5300606D521686FF41A
:101D4000025008612046FFF742FEE80508D530063C
:101D500006D521686FF4807008612046FFF736FED3
:101D6000680608D5700606D521686FF04000086146
:101D7000204600F04DF8A80608D5B00606D5216823
:101D80006FF0200008612046FFF722FEE80208D528
:101D9000F00206D521686FF4801008612046FFF735
:101DA00019FEA80208D5B00206D521686FF400100C
:101DB00008612046FFF70DFE680208D5700206D5BF
:101DC00021686FF4800008612046FFF704FE2802B6
:101DD0000AD5300208D521686FF40000086120465A
:101DE000BDE8F041FFF746BEBDE8F081704770479F
:101DF00000680449884203D10349044800F056BDF5
:101E000070470000000400405C0100201800002022
:101E1000704790F88410012918D0012180F88410AF
:101E20002421C0F8881001680A680B6823F00103B8
:101E30000B6022F0005100224266036819602021E5
:101E4000C0F8881080F88420104670470220704740
:101E500070B5044690F8840001281DD0012084F854
:101E600084002420C4F8880020680568026822F0F5
:101E7000010202602068826822F060620A43826088
:101E8000204600F04BFA206805602020C4F8880046
:101E9000002084F8840070BD022070BD70B5044637
:101EA00090F8840001281DD0012084F884002420AB
:101EB000C4F8880020680568026822F00102026008
:101EC0002068826822F060420A438260204600F067
:101ED00025FA206805602020C4F88800002084F8D6
:101EE000840070BD022070BD10B5040003D0D4F88A
:101EF000880010B107E0012010BD002084F88400A4
:101F0000204600F027F82420C4F8880020680168E3
:101F100021F001010160A06A10B1204600F020FA12
:101F2000204600F001FB0128E6D02068416821F43A
:101F3000904141602068816821F02A018160206819
:101F4000016841F0010101602046BDE8104000F049
:101F50006BBA000010B598B00446142111A8FEF722
:101F600022FA44216846FEF71EFA17492068884283
:101F700028D101200024CDE900046846FFF784F849
:101F800008B1FEF776FA1148016E41F4804101660E
:101F9000016E01F480411691C16C41F00101C164F0
:101FA000C06C11A900F0010016904FF4C0601190B0
:101FB0000220CDE912040720CDE914404FF09040F3
:101FC000FEF73AFE18B010BD003801400010024084
:101FD000FEE7000010B5124810490E2401600021F0
:101FE00041608160C16001744174817404230522E1
:101FF000C461C0E90532C0E90823C0E90A240263CC
:102000000122C0E90D21C163FEF7A6FC002803D020
:10201000BDE81040FEF72DBA10BD0000006400407E
:102020001800002010B586B014216846FEF7BBF9F1
:102030001548C16C41F02001C164C16C01F0200160
:102040000591C16C41F00201C164C16C01F0020153
:102050000591C16C41F00101C164C06C0B4C00F0F2
:1020600001000590012202212046FEF709FF02200F
:10207000009001200021CDE901010391694620462D
:10208000FEF7DAFD06B010BD001002400004004863
:1020900010B588B00024174800940194029403946A
:1020A00004940594124906940160A921C0E9011421
:1020B00040F2E731C0E903148461FFF7DCFC08B1AA
:1020C000FEF7D7F94FF48050009069460948FFF7B2
:1020D0003BFD08B1FEF7CDF9049404A90548069428
:1020E000FFF77AFC002801D0FEF7C3F908B010BD55
:1020F000000400407C000020184810B5164901601B
:102100004FF461214160002181600C22C160C0E96F
:1021100004128161C161016241628162FFF7E4FEE4
:1021200008B1FEF7A6F900210C48FFF7B7FE08B189
:10213000FEF79FF900210948FFF78AFE08B1FEF774
:1021400098F90648FFF765FE002803D0BDE8104067
:10215000FEF78FB910BD000000380140C800002014
:10216000FEE7FEE770477047FEF796BE10B594B0E5
:1021700038216846FEF717F914210EA8FEF713F967
:102180000020FEF71BFF01210804CDE90010032405
:10219000CDE9084102202821CDE90A100790042149
:1021A000CDE90C106846FFF7FBF908B172B6FEE7FF
:1021B0000F20CDE90E040020109011901290042100
:1021C0000EA8FFF7A5F8002801D072B6FEE714B0FC
:1021D00010BD00000248016841F4700101607047C1
:1021E00088ED00E00148FFF730BD00007C000020D2
:1021F0002DE9F0430268264B264D274E274C4FF021
:102200008049984207D0484505D0A84203D0B04243
:1022100001D0A04203D122F070074A683A43204F10
:10222000DFF880C0DFF8808098420DD048450BD0A1
:10223000A84209D0B04207D0A04205D0B84203D08E
:10224000604501D0404503D122F44075CA682A4355
:102250004D6922F080022A4302608A68C2620A68DD
:102260008262984207D0A04205D0B84203D06045B0
:1022700001D0404501D10969016301214161016932
:10228000C90703D0016921F001010161BDE8F083B4
:10229000002C0140000400400008004000340140D0
:1022A00000400140004401400048014010B58468EE
:1022B00042EA032224F47F440A432243826010BD91
:1022C0008268034B1A400A4342F00701816070475D
:1022D0008FFFCFFF10B5036A046A24F00104046283
:1022E000846924F0F00444EA021423F00A020A4349
:1022F0008461026210BD10B5036A046A24F0100400
:102300000462846923F0A00324F4704444EA023296
:1023100043EA01118261016210BD000030B5416ED7
:10232000B9B1026891689268C1F342610B4B520FD8
:102330009C5CE50003F10804A25CB5FBF2F2A0F896
:102340006A205A5C615CD200B2FBF1F1A0F868101F
:1023500030BD0121A0F86A10F8E70000962E0008B1
:1023600090F82810090706D501684A68836B22F4A3
:1023700000421A434A6090F82810C90706D0016845
:102380004A68C36A22F400321A434A6090F828105F
:10239000890706D501684A68036B22F480321A4324
:1023A0004A6090F82810490706D501684A68436BCF
:1023B00022F480221A434A6090F82810C90606D5F4
:1023C00001688A68C36B22F480521A438A6090F8CD
:1023D0002810890606D501688A68036C22F4005229
:1023E0001A438A6090F82810490611D501684A6896
:1023F000436C22F480121A434A60416CB1F5801F8D
:1024000006D101684A68836C22F4C0021A434A600C
:1024100090F82810090606D501684A68C06C22F4B5
:10242000002202434A6070472DE9F8430026044623
:10243000C0F89060FEF72AFD8046206800684FF0E3
:10244000200500076FF07E4713D54346002229047C
:102450002046009700F0A2F958B1216851E8000F1A
:1024600020F0800041E80002002AF6D1C4F888502C
:1024700021E020680068400722D5434600224FF43F
:1024800080012046009700F089F9C8B1216851E821
:10249000000F20F4907041E80002002AF6D1206875
:1024A000083050E8001F21F0010140E80012002A26
:1024B000F5D1C4F88C5084F884600320BDE8F8831B
:1024C000C4F88850C4F88C5044F86C6F6660267667
:1024D0000020F3E710B5026852E8001F21F4907164
:1024E00042E80013002BF6D10E4B0268083252E886
:1024F000001F194042E80014002CF6D1C16E0129DA
:1025000008D1016851E8002F22F0100241E80023B1
:10251000002BF6D12021C0F88C100021C166416744
:1025200010BD0000FEFFFFEF2DE9F04104460168F9
:1025300080682269E3691043626900251A431043E9
:10254000DFF82CC20A688B4B1A4002430A602068ED
:102550004168E26821F44051114341602168A0695B
:10256000614501D0226A10438A68834B1A400243B6
:102570008A602068C16A626A21F00F011143C1625A
:102580007E4923687E488B420DD1D0F8880010F038
:10259000030006D0012855D0022842D003283FD19D
:1025A00052E001203DE077498B420BD1D0F8880002
:1025B00010F00C0035D0042833D0082840D00C2867
:1025C0002ED141E070498B420BD1D0F8880010F039
:1025D000300026D0102835D0202831D030281FD107
:1025E00032E06A498B420BD1D0F8880010F0C0006D
:1025F00017D0402826D0802822D0C02810D123E030
:1026000063450DD1D0F8880010F4406009D0B0F5D2
:10261000806F17D0B0F5006F12D0B0F5406F13D0B7
:1026200010205B495B4F00264FF4004263453BD1CD
:1026300060B1022813D004280BD0082872D10DE015
:102640000220EEE70420ECE70820EAE7FEF74EFF61
:1026500001E0FEF76FFF010001D17CE01146606AE6
:1026600037F810206768B1FBF2F007EB47038342AD
:1026700070D8B0EB073F6DD8002308461946FDF728
:102680001BFE090241EA106102027808101871412C
:102690003A460023FDF710FE3F4AA0F540719142F3
:1026A00058D82168C86056E0E3694FF6EF78934246
:1026B0002CD109284ED2DFE800F00508114D0D4D50
:1026C0004D4D1000FEF712FF01E0FEF721FF010063
:1026D00004D140E0FEF72EFFF9E71146606A37F8B3
:1026E0001000B1FBF0F04100606801EB5001B1FB5C
:1026F000F0F0A0F1100141452CD84FF6F0710140E7
:10270000C0F3420001432068C16024E0092821D2BF
:10271000DFE800F0050912200E2020201100FEF74E
:10272000E5FE02E016E0FEF7F3FE010004D112E040
:10273000FEF700FFF9E71146606A37F81000B1FBB9
:10274000F0F1606801EB5001B1FBF0F0A0F1100175
:1027500041450AD901250120A4F86A0024F8680F30
:102760002846E6602661BDE8F08180B299E7000066
:1027700000800040F369FFCFFFF4FF1100380140F3
:10278000001002400044004000480040004C00405F
:102790000024F4007E2E0008FFFC0F002DE9F04716
:1027A000994617460D4604464FF00008089E33E050
:1027B000701C31D0FEF76AFBA0EB0900B04218D8BC
:1027C000BEB120680168490726D5802D24D0402D50
:1027D00022D0C169C94309070DD4082505622046E6
:1027E000FFF778FEC4F8905084F884800120BDE89B
:1027F000F0870320FBE7C069C04300050CD42168C3
:102800004FF4006008622046FFF764FE2020C4F801
:10281000900084F88480ECE72068C06935EA000005
:1028200004D00020B842C3D00020E0E70120F9E73F
:10283000FEE70907090E002804DB00F1E02080F81C
:102840000014704700F00F0000F1E02080F8141D24
:102850007047000010B500F00FF80548FEF7CFF9FB
:10286000BDE810404FF4706202490148FDF74EBECA
:102870001800002081026E0010B588B0002002AA66
:1028800002210124019082E813000590069001A91D
:102890000548FDF7D0FE02220123114602480094AC
:1028A000FDF7F7FE08B010BD1800002091F83C209D
:1028B000012A0ED0022A19D0032A1ED0042A21D1BF
:1028C00091ED131AD1ED110A91ED100A098800F06B
:1028D0007BB991ED122AD1ED151A91ED141AD1EDB3
:1028E000110A91ED100A0A8800F0EAB8D1ED110A38
:1028F00091ED100A098800F043B991ED110A098899
:1029000000F086BA704710B5024608780B4600F012
:102910000F005060087800099060B1F8010040BADB
:10292000D060C9781C79090141EA141111611C7940
:10293000597904F00F0441EA04215161D2ED2C0AC7
:102940001021B1EE600A00F079FA82ED080AD2EDAA
:102950002D0A0C211069B1EE600A00F06FFA82EDC9
:10296000090AD2ED2E0A0C215069B1EE600A00F07E
:1029700065FA82ED0A0A987900EE100AB8EE400A6C
:1029800082ED0D0AD87900EE100AB8EE400A82ED09
:102990000E0A10BD0EB500200190029001AA6946F2
:1029A000074800F011F8BDF80000002807D101A980
:1029B0000448FFF7A8FF01A9024800F039F90EBD4D
:1029C000180000205C01002030B58BB00D46134686
:1029D0006A464021FDF782FE10B100200BB030BDE9
:1029E000009828800398082801D8C4B21BE0092861
:1029F0000CD00A280CD00B280CD00C280CD00D2899
:102A00000CD00E280CD00F280CD00CE00C240AE0BF
:102A1000102408E0142406E0182404E0202402E036
:102A2000302400E040242046D8E700B589B000916A
:102A3000002101910291082B00D90823CDE903312F
:102A400005910691079108916946FDF7CFFD002891
:102A500000D0012009B000BD012131EE601A814093
:102A600070EE600A491E00EE101AB8EEC00A20EEA1
:102A7000800AC0EE010ABDEEE00A10EE100A7047AF
:102A8000FEF712FAFFF772FBFFF7CCFAFFF7A2FA94
:102A9000FFF732FBFFF7FCFAFFF7DCFE4FF4A4640C
:102AA0004FF4FA750823044A21460448FFF7BDFF96
:102AB0002846FDF719FDF5E700000020180000206A
:102AC0002DE9FC41F0EE412A91ED2C1AB0EE603A6E
:102AD00006460B461546F1EE410A1020FFF7BCFFF3
:102AE00093ED2D1A07460C20F1EE410AB0EE430A91
:102AF000FFF7B2FF93ED2E1A02460C20F1EE410AC9
:102B0000B0EE420AFFF7A8FF9FED1C2A04460C20F6
:102B10009FED191AF0EE420AB0EE620AFFF79CFF31
:102B200003460C20B1EE041AF0EE420AB0EE610A40
:102B3000FFF792FF390A8DF800108DF80170110926
:102B40008DF80210110141EA13218DF803108DF860
:102B5000043001098DF80510010141EA14208DF8B7
:102B600006008DF8074008236A4629463046FFF7DD
:102B70005CFFBDE8FC8100000000FA43000000009B
:102B80001CB510EE103A10EE902A8DF800301C0A99
:102B90008DF801401C0C8DF802401B0E8DF803309F
:102BA0008DF80420130A8DF80530130C8DF80630CB
:102BB000120E01F580718DF8072089B208236A464C
:102BC000FFF733FF1CBD00007CB510EE102A9FED0F
:102BD000160A8DF80020150A20EE800A8DF80150A3
:102BE000150C8DF80250BCEEC00A120E8DF80320B1
:102BF00010EE103A9FED0D0A8DF804301A0A21EEFE
:102C0000000A8DF8052001F5407189B2BCEEC00ABA
:102C1000082310EE104A8DF80640220A8DF807208E
:102C20006A46FFF702FF7CBD0000C84200401C4618
:102C300010B590F85830002B6FD08B78332B6CD1B7
:102C40000C79CB7864F307024C79522B64F30F2292
:102C50008C79C97964F3174261F31F625DD2DFE8B2
:102C600003F0292C2F3235383B3E4144484C505418
:102C7000585D6165696D7175797D8185898D9195E5
:102C8000999DA1A5A9ADB1D6D6D6D6D6D6D6D6D63B
:102C9000D6D6D6D6B5B9BDC1C5C9D6D6D6D6D6D65E
:102CA000D6D6D6D6D6D6D6D6D6D6D6D6D6D6D6D6C4
:102CB000D6D6CDD10221C265A7E003210266A4E0E9
:102CC00004214266A1E0052182669EE00621C266DB
:102CD0009BE00721026798E00821426795E00921FF
:102CE000826792E00A21C2678FE00B21C0F8802042
:102CF0008BE00C21C0F8842087E00D21C0F88820EB
:102D000083E00E21C0F88C207FE00F21C0F89020D6
:102D10007BE01021C0F8942077E078E01121C0F822
:102D2000982072E01221C0F89C206EE01321C0F8B8
:102D3000A0206AE01421C0F8A42066E01521C0F8A4
:102D4000A82062E01621C0F8AC205EE01721C0F890
:102D5000B0205AE01821C0F8B42056E01921C0F87C
:102D6000B82052E01A21C0F8BC204EE01B21C0F868
:102D7000C0204AE01C21C0F8C42046E01D21C0F854
:102D8000C82042E01E21C0F8CC203EE01F21C0F840
:102D9000D0203AE02021C0F8D42036E02121C0F82C
:102DA000D82032E02221C0F8DC202EE02321C0F818
:102DB000E0202AE02421C0F8E42026E02521C0F804
:102DC000E82022E02621C0F8EC201EE02721C0F8F0
:102DD000F0201AE02821C0F8F42016E02921C0F8DC
:102DE000F82012E02A21C0F8FC200EE02B21C0F8C8
:102DF00000210AE02C21C0F8042106E02D21C0F8B2
:102E0000082102E00021C0F80C2180F8581010BD04
:102E100008B510EE102A01F500718DF80020130A94
:102E20008DF80130130C8DF80230120E8DF803204E
:102E300089B204236A46FFF7F8FD08BD01EE100AC7
:102E400070EEC00A0120B8EEC11A8840401E21EE83
:102E5000201A00EE900AF8EEE01AC1EE210A30EED8
:102E6000800A70474FF04070E1EE100A7047000191
:102E7000020304050607080C101418203040010056
:102E800002000400060008000A000C0010002000E8
:102E90004000800000010101010307010000080457
:102EA000020408010101000000000000000001020E
:102EB00003040607080900000000010203040000E3
:102EC000E02E000800000020180000001402000896
:102ED000F82E0008180000204812000030020008F8
:102EE00000010203040506071000000001000000B5
:082EF000000000000024F400C2
:04000005080001D915
:00000001FF
