:020000040800F2
:1000000050750020AD020008834B0008A947000886
:10001000814B00083D0900089D6F000800000000AA
:10002000000000000000000000000000ED010008DA
:10003000F11200080000000049020008CD5D000830
:10004000C7020008C7020008C7020008C70200086C
:10005000C7020008C7020008C7020008C70200085C
:10006000C7020008C7020008C7020008C70200084C
:10007000C7020008C7020008C7020008C70200083C
:10008000C702000800000000C7020008C7020008FD
:10009000C7020008F912000805130008C70200088B
:1000A000C7020008C7020008C7020008C70200080C
:1000B000C70200085D5E0008C7020008C70200080A
:1000C000C7020008C7020008C7020008C7020008EC
:1000D00055540008C7020008F16E0008C702000866
:1000E000C7020008C7020008C7020008C7020008CC
:1000F000C7020008C7020008C7020008000000008D
:1001000000000000C7020008000000006154000861
:10011000C702000800000000695E0008C70200086E
:10012000C7020008C7020008C7020008C70200088B
:10013000C70200080000000000000000C70200081D
:10014000C7020008C702000800000000000000000D
:10015000000000000000000000000000000000009F
:10016000000000000000000000000000C7020008BE
:10017000C7020008000000000000000000000000AE
:1001800000000000C702000800000000000000009E
:10019000000000000000000000000000000000005F
:1001A0000000000000000000C7020008C7020008AD
:1001B000C7020008C7020008C702000800000000CC
:1001C00000000000C702000800000000000000005E
:1001D000C7020008C7020008DFF80CD000F0D4FA0C
:1001E000004800475F8B0008507500202C4B1968B1
:1001F0000868B0E8F04F80F30988BFF36F8F4FF0C5
:10020000000080F311887047000000000848006873
:10021000006880F308884FF0000080F3148862B60D
:1002200061B6BFF34F8FBFF36F8F00DF00BF00BF1A
:1002300008ED00E0DFF80C00016841F47001016096
:10024000704700BF88ED00E0EFF30980BFF36F8FC8
:10025000134B1A681EF0100F08BF20ED108A20E91A
:10026000F04F106009B44FF0500080F31188BFF3D5
:100270004F8FBFF36F8F09F08FFF4FF0000080F3B7
:10028000118809BC19680868B0E8F04F1EF0100F1B
:1002900008BFB0EC108A80F30988BFF36F8F7047F6
:1002A0004C000020EFF305807047000006488047AF
:1002B00006480047FEE7FEE7FEE7FEE7FEE7FEE74B
:1002C000FEE7FEE7FEE7FEE74D5E0008D901000805
:1002D0002DE9F05F0546002092469B46884606467B
:1002E000814640241BE0284641464746224600F00E
:1002F00083F853465A46C01A914110D31146184606
:10030000224600F06AF82D1A67EB01084F46224694
:100310000120002100F061F817EB00094E41201E7A
:10032000A4F10104DFDC484631462A464346BDE8D5
:10033000F09F40EA01039B0703D009E008C9121FA0
:1003400008C0042AFAD203E011F8013B00F8013B8F
:10035000521EF9D27047D2B201E000F8012B491EBB
:10036000FBD270470022F6E710B513460A46044652
:100370001946FFF7F0FF204610BD421C10F8011B84
:100380000029FBD1801A704700F0004230F0004095
:100390000AD0C10D01F56071C0F3160042EA0151A7
:1003A000C20840071143704700200146704730B52E
:1003B0000B46014600202022012409E021FA02F523
:1003C0009D4205D303FA02F5491B04FA02F52844BD
:1003D000151EA2F10102F1DC30BD202A04DB203A17
:1003E00000FA02F1002070479140C2F1200320FA88
:1003F00003F3194390407047202A04DB203A21FA86
:1004000002F00021704721FA02F3D040C2F120022D
:1004100091400843194670472DE9FE4F804681EA16
:100420000300C00F0C46009021F0004123F000456E
:10043000B8EB0200A94105D24046214690461C4631
:100440000B46024623F00040104347D0270DC7F368
:100450000A00C3F30A510290401A019040286BDA57
:10046000C3F3130040F4801B0098924620B1002390
:10047000D2EB030A63EB0B0B01985946C0F1400223
:100480005046FFF7AAFF06460D4650465946019AC8
:1004900000F08CF910EB08006141002487EA11524A
:1004A00084EAE7731A4340D0009A62B3019A012AA2
:1004B0004FEA075215DC001B61EB02014FF00042CE
:1004C00002EA0752CDE90042001C41F58011324694
:1004D0002B4600F08CF903B0BDE8F08F4046214672
:1004E000F9E7001B61EB0201001C41F580130018C5
:1004F0005B412018A2F5001747EB030140EAD570D5
:10050000B6196D4111E06D084FEA360645EAC0752F
:100510004FEA0752001B61EB0201001C41F58011FC
:1005200049084FEA30000019514132462B4603B0CA
:10053000BDE8F04F00F04CB90098012240000023C4
:10054000D0EB020263EBE073009821464FEAE074BF
:10055000B8EB000061EB0401E9E783F000435BE7DF
:1005600081F0004158E72DE9FE4F81EA030404F0D1
:10057000004421F0004100944FF0000B23F00043B1
:1005800050EA01045ED052EA03045BD0C3F30A547C
:10059000C1F30A552C44A4F2F3340194A0FB025495
:1005A000C1F3130141F48011C3F3130343F4801327
:1005B00001FB024400FB034E840A970A44EA81547B
:1005C00047EA8357A4FB076802958D0A05FB078558
:1005D0004FEA932C04FB0C542705029D4FEA065862
:1005E00047EA1637B5EB08056EEB070C870E920E3F
:1005F00047EA811742EA8312A7FB0201B6EB0B011F
:1006000064EB00042B0D43EA0C335E1844EB1C50E2
:10061000DA465146E7FB0201C5F313044FEA0B33F8
:1006200043EA14534FEA0432019C43EA0603A4F15F
:100630000C040294009CCDE900B400F0D8F803B09B
:10064000BDE8F08F00200146F9E72DE9F04D81EA81
:10065000030404F0004B21F0004514464FF0000A5B
:1006600023F0004150EA050220D054EA01021DD0D7
:10067000C5F30A570246C5F31303C1F31300C1F3D0
:100680000A5640F4801543F48013A7EB0608101BAC
:10069000D64608F2FD3873EB050002D308F10108D5
:1006A00001E092185B41B8F1000F03DA0020014627
:1006B000BDE8F08D00204FF48011064684460EE020
:1006C000171B73EB050705D3121B63EB05030643EA
:1006D0004CEA010C49084FEA300092185B4150EA9D
:1006E0000107EDD152EA030012D082EA040083EA46
:1006F0000501084305D0101BAB4106D2012200239F
:1007000006E000224FF0004302E06FF001025310B8
:100710001AEB06004CEB085110EB0A0041EB0B0101
:10072000BDE8F04D00F054B8C1F30A52C1F3130113
:1007300040F2FF3341F480119A4202DA0020014670
:10074000704740F233439A42A2F2334202DC5242F3
:10075000FFF752BEFFF741BE30B5041E71F1000431
:1007600004DB4FF00044404264EB0101141E73F1BE
:10077000000405DB1C464FF00043524263EB0403C8
:10078000994208BF904230BD064C074D06E0E06834
:1007900040F0010394E8070098471034AC42F6D3C8
:1007A000FFF71EFDD0B20008F0B20008202A06DBD9
:1007B000CB17203A41FA02F043EAE07306E041FA2F
:1007C00002F3D040C2F1200291400843194670471D
:1007D00010B5141E73F1000408DA401C41F1000149
:1007E00092185B411A4301D120F0010010BD2DE9A0
:1007F000F04D92469B4611B1B1FA81F202E0B0FA97
:1008000080F220329046FFF7E8FD04460F4640EAAA
:100810000A0041EA0B0153465A46084313D01146D9
:1008200053EA010019D0C8F140025046FFF7E4FD39
:1008300005460E46504659464246FFF7CEFD084350
:1008400005D0012004E020463946BDE8F08D0020A7
:10085000054346EAE0762C4337430A986305E40AE9
:10086000A0EB08000022FD0A44EA47540A3002D5F2
:1008700000200146E9E7010510196941DDE9084555
:1008800000196941BDE8F04DA2E730B58C1810F8A9
:10089000012B12F00F0301D110F8013B120906D110
:1008A00010F8012B03E010F8015B01F8015B5B1EFF
:1008B000F9D101E001F8013B521EFBD1A142E6D380
:1008C000002030BD10B500F0E9FC012210214FF0EE
:1008D000904001F0D3FEBDE810404FF4FA7000F0F4
:1008E000F1BC000070B5124C002543F6FF70257076
:1008F00004F06EFD217809B1657070BD00EE100A3C
:10090000DFED0C0A6080B8EE400A012020EE200ADC
:10091000DFED090A20EE200A84ED020A607043F63A
:10092000FE7004F055FD21780029E6D1A08070BD4D
:10093000CC0000200000B44300008038FEE7000037
:10094000F0B5524C2DED028B83B0C4E907014FF492
:1009500080614F48FFF706FD4D4D4DF231400026B6
:1009600025F8020B4FF4877025F81E0B49480188C3
:10097000C1F30A0125F8021B25F82E6B25F82C6C13
:10098000D0ED2C0A9FED441AB6EE000A41F2941104
:1009900000EE810ABCEEC00A10EE100A9FED3F0A7D
:1009A0006886AE8684ED0A0A0F2025F8280C3020D0
:1009B00008F03EFF4FF47A70A8822E8309F008F900
:1009C0005020A8833221E983642129840A21698483
:1009D0002F21A984FA21E98478272F856F85A8859E
:1009E0002820E885012028862D49432008F01EFF95
:1009F0000021452008F01AFFEF8707F091FE07F06D
:100A0000F1FD07F005FF9FED278A8DED008A8DF837
:100A1000046004F0B7F804F1340101AB6A46081F22
:100A200004F0B2F8207270B194ED0D0A07F062FF85
:100A300010EE100A1C49884203DD94ED0D0A84ED86
:100A40000A0A207A48B91948007820B106F044FF14
:100A500084ED0C0A01E084ED0C8AA6709DF8040078
:100A600008B19DED008A124884ED0B8AE67026716C
:100A70006671E671A6710670667208F04BFA03B0F3
:100A8000BDEC028BBDE8F04009F0F4B80C01002089
:100A9000DC6C00208C61002000007A440000D4410E
:100AA000F9FDFFFF00000000BD378635CD000020B6
:100AB000B46A00202DE9F0410C462DED028B304840
:100AC00007F0B7FC20782F4F00092D4EA7F806023B
:100AD000A079A7F80802E0792B4CA7F80A020125B3
:100AE000607918BB07F068F800B309F05BF8F0EE26
:100AF000400A96ED088AF0EE608A07F0F5FFC8EE2E
:100B0000280A002030EE600A84ED0B0AE57020719F
:100B1000A5706571E57108F0EFF9A7F50A70007826
:100B200058B1B88C48B107F033F906E007F044F843
:100B300018B9208B40F48060208306F0D9FE10B1F4
:100B400007F0D2FF03E096ED080A08F087F80F4897
:100B5000D6ED090A96ED0A1A80EC030AA572DFEDBC
:100B60000C0A4FF48070BDEC028B20EE200ABDE829
:100B7000F041BDEEC00A10EE101A08F057BE00009A
:100B80008C610020DC6C00200C010020CC6A00206D
:100B900000007A442DE9F05FFE4C0246E069824293
:100BA0007AD16182042904D3FB4E0D4631780129A4
:100BB00003D04FF48072F8492EE2A81E81B230466D
:100BC00007F052FB711931F8021C8842707801D08D
:100BD000032144E04FF000088246C1464FF0010B6C
:100BE000032807D0BAF1060F2DD0BAF1100F6FD03D
:100BF000012133E0082D6CD3708843BAB08841BA24
:100C00005818B0F5007F00D30021E44803264A00BD
:100C100080F800B046708270002200F582770CE008
:100C20009D1800EB420C37F81550521C4FEA15285E
:100C30008CF803808CF8045092B28A42F0D306EB11
:100C4000410080B2B6E1082DD5D3708845BAB0888E
:100C500047BA284607F06CFF28B102215046BDE88C
:100C6000F05F08F087BFDFF83883162D28F815707D
:100C700013D0172D19D0342D1ED0302D25D0312D65
:100C800023D0322D21D0A5F13600112822D807F02B
:100C900047FD07F0A7FC9AE0C7E1012F02D1012030
:100CA00006F0AEFFA8F82C9091E0012F01D107F0DB
:100CB0006BF9A8F82E908AE0A7F525405A3801D1A3
:100CC00004F07AF8A8F8689081E008F081FF7EE0EF
:100CD00084E003E1422D1AD0102D1DD0112D20D01B
:100CE000122D23D0242D70D0252D6ED0202D6CD028
:100CF000212D6AD0222D3ED0232D3CD0262D64D02C
:100D0000272D62D0142D60D0132D37D05FE08FB324
:100D1000F8B206F0F5FD5AE0A248C7F30A010180D7
:100D200055E008F0A7FF06F00DFF50E008F0A2FF25
:100D3000DFB104F067F830B1A8F824909949206A2F
:100D400007F03BFB43E006F037FF28B907F092F9C4
:100D5000208B40F4806020839249206A07F04EFB8C
:100D600001F092FC07F07CF92BE084F80C9007F07E
:100D700001F8E3E711E084F809B026E0012F26D15D
:100D80008849206A07F0BEFA04F03CF830B1854982
:100D9000206A07F012FBA8F8249018E006F00CFF78
:100DA00028B907F067F9208B40F4806020837D49E3
:100DB000206A07F023FB01F067FC07F051F9A8F85F
:100DC00024B075482438007808B106F0E1FF734874
:100DD000316824384162B1880185EAE0092D7DD36C
:100DE000708845BAB08847BAB0797906090E814251
:100DF00074D100200BE000BF05EB080080B207F0C3
:100E000097FE00287FF429AF08F1010080B28046E8
:100E1000B842F1D30020DFF8888109E006EB4001F9
:100E20002B18B1F80710401C49BA28F8131080B2EB
:100E3000B842F3D3312D04D8E819302801D908F08D
:100E4000C7FE322D04D8E819322801D908F0C0FEB7
:100E5000472D06D8E819362803D907F061FC07F0BA
:100E6000C1FB422D08D8E819422805D9B8F88400FA
:100E700010B1C0B206F044FD342D0CD8E819342866
:100E800009D9B8F86810A1F525405A3801D103F006
:100E900093FFA8F86890172D0AD8E819172807D9E2
:100EA000B8F82E00012801D107F06EF8A8F82E90AE
:100EB000122D0ED8E81912280BD9B8F8240040B129
:100EC00003F0A0FF28B1A8F824903649206A07F063
:100ED00074FA272D0CD8E819202800E06BE007D918
:100EE000232D03D8222801D984F809B006F050FF39
:100EF000142D04D8E819142801D906F049FF102D43
:100F000008D8E819102805D9B8F82000C0F30A015C
:100F100024480180112D07D8E819112830D908F08C
:100F2000A9FE06F00FFE01E0122D29D8E8191228BB
:100F300026D908F09FFEB8F824004546A0B303F078
:100F400061FF30B1A5F824901649206A07F035FA00
:100F500016E006F031FE28B907F08CF8208B40F43B
:100F6000806020830F49206A07F048FA01F08CFB6B
:100F700007F076F808482438007808B106F008FF32
:100F80000648102180F800B04170B1788170F17886
:100F9000C1700AE00C010020D86A0020D86B002044
:100FA000DC6C00208C61002019E0317901717179CD
:100FB00041710620804641461D4807F055F91C4AFC
:100FC00008F1010189B202F80800000A5054491CD6
:100FD000A1825D4684F800B0607828B118E084F8FA
:100FE0000C9006F0C7FEAFE74FF0904601220221B9
:100FF000304601F043FBA28A0D49E06903F080FB13
:1010000070B184F8009000220221304601F036FBD6
:101010000849E0694FF48072BDE8F05F03F00CB856
:10102000657001F031FB6062F2E7BDE8F09F0000FF
:10103000D86B0020D86A002010B50E4CE1698842B8
:1010400016D100206070207060620868C169C943D1
:101050004906FBD4002202214FF0904001F00EFB24
:10106000E069BDE810404FF48072034902F0E4BF2C
:1010700010BD00000C010020D86A00202DE9F043CB
:101080002DED028B83B001F0FFFA00260446009696
:10109000ADF8046001A9684603F09EFE03F096FED9
:1010A0006C4FA7F80C0240F20710009908F0C0FB43
:1010B000BDF80400A7F8120203F0A4FE664D5FEA33
:1010C00000080AD0BE842E7306F054FE287C20B996
:1010D000286A10B1614907F070F985F81080B88C62
:1010E00040B106F069FD28B906F0C4FF288B40F432
:1010F00080602883DFF86881286D4FF0010910B106
:10110000201A142832D3EFF3108072B6A97A49B1AD
:10111000534991ED068AD1ED070A91ED081AAE7296
:1011200010B102E068B121E062B6B0EE480A00F00A
:1011300003FB98F80010C1B1B98CB1B1297B11B192
:1011400013E062B612E0D8ED020AB0EE480A06F0EB
:10115000ABFD50B185F80C9085ED108A288B40F4DA
:10116000007028833E4806F023FC2C65686D10B1A2
:10117000201A322802D306F08FFF6C65A86D10B1DB
:10118000201A142810D3AC6598F8000060B1B88C10
:10119000D0B1287B50B903F02BFE28B906F00CFD26
:1011A00010B12F4806F004FCB88C68B1286A58B119
:1011B000A96C8C4208D2E96C11B1611A322903D3AF
:1011C000264907F01BF9EC6468784FF480784FF0FB
:1011D0009047A0B1686A201A142810D9E86902F073
:1011E000ABFF6E702E700022022138466E6201F055
:1011F00045FA1B4942462431E86902F01DFF287870
:10120000002821D0687800281ED10122022138460A
:1012100001F034FAAA8A1349E86903F071FA80B13F
:101220002E7000220221384601F028FAE86903B046
:101230004246BDEC028B0A49BDE8F043243102F07E
:10124000FBBE85F801906C6203B0BDEC028BBDE87B
:10125000F0830000DC6C00200C0100208C61002079
:10126000B46A0020D86B002010B5002202214FF094
:10127000904001F003FA074800214170017041627B
:10128000C0690821026811624A01BDE810400249A4
:1012900002F0D2BE0C010020D86A00200748016885
:1012A000C90103D4016841F0807101600448002144
:1012B0004160016841F0010101607047FCED00E010
:1012C000001000E0074A10B553680749074C096849
:1012D000B1FBF4F1414300E000BF5068C01A8842FE
:1012E000FAD310BD001000E04800002040420F007B
:1012F000704772B6FEE70000014800F0E2BC000053
:1013000068010020014800F0DCBC000068010020FA
:10131000F0B5D1E901650C692C430D68C6B145F003
:1013200080452C43D1E90665354391F820704E691C
:10133000406D46EA076635438E8903EBC30300EB35
:10134000C30045EA0645E0E802450023084C0AE0F0
:1013500044EA8544E6E7D618D55CD6F801601B1D43
:1013600045EA062520C0CD68655D9D42F3D8F0BDF5
:1013700014B10008144A117F1448012901D003292F
:101380000FD1036823F400730360036843F4006320
:101390000360036823F400630360036843F400738D
:1013A0000360022901D003290BD1016841F4805167
:1013B0000160016821F480510160016841F480619D
:1013C00001600020107770472800002000200240B4
:1013D000C107054803D0416941F0040141614169F9
:1013E00041F48031416170470020024008494A6958
:1013F000C0B222F4FC7242EAC0004861486940F081
:1014000002004861486940F480304861704700003C
:1014100000200240054910B54C6944F001044C61BC
:101420000260BFF36F8F436010BD000000200240D8
:10143000094A10B55469402344F480245461EFF301
:10144000108272B610C95B1E10C013F0FF03F9D1F1
:1014500082F3108810BD00000020024070B50646DF
:1014600001F012F90546134C07E000BF01F00CF93A
:10147000401BB04201D9032070BD2069C003F5D4E0
:1014800020694CF2FA3108400CD00B494A680243FB
:101490004A60810F01D0A169A161810000D0206163
:1014A000012070BD2069C00701D00120206100200B
:1014B00070BD00000020024028000020002803D05A
:1014C00040220249FEF735BF70470000DC70002063
:1014D000002803D034220249FEF72BBF70470000DA
:1014E0001C71002020489FED1F0ADFED230A80EDCC
:1014F000000A9FED1E0AB7EE001A80ED010A9FED6B
:101500001C0A012180ED020A9FED1A0A80ED030AF0
:101510009FED1A0AC0ED040A80ED050A80ED061A57
:101520009FED171A80ED071AB5EE001A80ED081A24
:1015300080ED090A80ED0A0A9FED120AC0ED0B0A40
:1015400080ED0C0A9FED100A80ED0D0A9FED0F0A49
:1015500080ED0E0A80F83C10032180F83D1000F069
:1015600017B80000CDCCCC3DDC700020CDCC4C3D7C
:101570000AD7233C8FC2F53C0AD7A33D8FC2F53D65
:10158000221843380AD7233D2DE104BF0000000094
:1015900010B534210648FEF7E5FE0548403890F9BD
:1015A0003C0007F06FFB024981F8320010BD0000DB
:1015B0001C71002010B500282DED028B7DD0014656
:1015C00040225848FEF7B5FE564C94ED000A9FEDB8
:1015D000568AB5EEC00AF1EE10FA01D284ED008A07
:1015E00020684FF07E51B7EE000A884201DD84ED9D
:1015F000000AD4ED010AF5EEC00AF1EE10FA01D2AC
:1016000084ED018AD4ED020AF5EEC00AF1EE10FA7B
:1016100001D284ED028AA068884201DD84ED020ACD
:1016200094ED030AB5EEC00AF1EE10FA01D284ED92
:10163000038A94ED040AB5EEC00AF1EE10FA01D265
:1016400084ED048A94ED050AB5EEC00AF1EE10FAB5
:1016500001D284ED058A94ED060AB5EEC00AF1EEDA
:1016600010FA01D284ED068A94ED070AB5EEC00A9D
:10167000F1EE10FA01D284ED078A94ED080AB5EE76
:10168000C00AF1EE10FA01D284ED088A94ED090A3D
:10169000B5EEC00AF1EE10FA01D284ED098A94ED9C
:1016A0000A0AB5EEC00AF1EE10FA01D284ED0A8AF8
:1016B00094ED0B0AB5EEC00A00E02FE0F1EE10FA4F
:1016C00001D284ED0B8A94ED0C0AB5EEC00AF1EE5E
:1016D00010FA03D89FED150A84ED0C0A94ED0E0A5A
:1016E000D4ED0D0A30EE600A07F00CF910EE100A86
:1016F0000F49884205DC9FED0F0A84ED0D0A84ED49
:101700000E8A14F93C0F07F0BDFA04F8010B14F827
:101710003D09002802D1012084F83D00BDEC028B78
:1017200010BD0000DC700020000000006F12833A42
:1017300017B7D1382DE104BF70B56B4C2DED028B7E
:10174000B0EE608A84ED0B0A84ED0A8A84ED001AFB
:10175000D4ED011AA4F1400531EE610AD5ED000A7D
:1017600040EE801AB0EE480AC4ED011A07F0CAF83C
:10177000D5ED010AB4EEE00AF1EE10FA16D294EDBE
:10178000000A07F0BFF8D5ED030AB4EEE00AF1EE67
:1017900010FA0BD2D4ED010A94ED020A95ED021A6B
:1017A00070EEC00A01EE200A84ED020AB0EE480A8B
:1017B00007F04AF9D4ED020A30EE200A84ED030A5C
:1017C00094ED040A07F09EF810EE100A474988428B
:1017D00002DA94ED030A09E0D4ED030A94ED040A59
:1017E00070EEC00A9FED421A00EE810A84ED040AF1
:1017F00094ED010AD4ED040A70EE600AC4ED050A06
:10180000D4ED020A95F93C0070EE600A00EE100A71
:10181000B8EEC00A60EE800A9FED360AC4ED070AF2
:10182000F5EEC00AF1EE10FA01D284ED070A84ED5C
:10183000060AD4ED070A70EEC00AC4ED080AF5EEF8
:10184000C00AF1EE10FA01D284ED080A94ED090AFB
:10185000D4ED081AD5ED060AB0EE401A002011EEBC
:10186000A01AF5EE001A01EE210A84ED090A95EDA1
:10187000041A94F8301061EE200A9FED1F1A20EE32
:10188000811AA1B1B4EEC10AF1EE10FA28D294F88F
:101890003110FF2902D2491C84F83110C9B2052940
:1018A00002D304F8300F6070BDEC028B70BDB4EE53
:1018B000E00AF1EE10FA07DD94F83110FF2905D2A5
:1018C000491C84F8311001E084F8310094F831109B
:1018D00095F83D209142E7D3012104F8301FE2E75B
:1018E00084F83100E0E700001C710020BD37863528
:1018F000CDCC4C3D000000009A99193F10B590F8EE
:10190000253000210122022B03D00421C1630121D3
:1019100022E003681C6824F00E041C60836C1C68C1
:1019200024F480741C6003681C6824F001041C60AB
:1019300090F84430046C03F01F0302FA03F3636071
:10194000D0E913345C60436D33B11C6824F48074B7
:101950001C60D0E916345C6080F82520002280F8F5
:101960002420084610BD70B590F8252000240121E0
:101970002346022A07D00422C26380F8251080F88B
:101980002430012429E00268156825F00E05156051
:101990000268156825F001051560826C156825F44C
:1019A0008075156090F84420056C02F01F0201FA62
:1019B00002F26A60D0E913255560426D32B11568B4
:1019C00025F480751560D0E91625556080F825103E
:1019D00080F82430816B01B18847204670BD30B556
:1019E00090F85C30012B07D0022B05D0016E41F03E
:1019F00002010166012030BD0468A36D4D0701D0CE
:101A0000DD071DD011F0380F01D09D0718D511F456
:101A1000E07F01D05D0713D511F4F05F01D01D0701
:101A20000ED511F4604F01D0DD0609D511F4403F09
:101A300001D09D0604D511F47C0F05D05D0603D4BA
:101A4000E56D45F00105E5654C0701D0DC071DD1CA
:101A500011F0380F01D09C0718D411F4E07F01D0A9
:101A60005C0713D411F4F05F01D01C070ED411F4FD
:101A7000604F01D0DC0609D411F4403F01D09C0630
:101A800004D411F47C0F06D05B0604D50368DC6D2A
:101A900044F00204DC650B0604D5036853F8DC4F00
:101AA00014431C60CB0504D5036853F8E04F14437E
:101AB0001C600068426D0A434265002030BD70B56D
:101AC000044690F85C00022803D0206E40F0080025
:101AD00007E02068D0F8C4309B0205D5206E40F4A2
:101AE00000702066012070BDD0F8C400C0F301452D
:101AF0002B462046FFF70CFC21680120A840C1F8C6
:101B0000CC00A065002070BD10B590F85C20012AC3
:101B100007D0022A05D0016E41F0020101660120C2
:101B200010BD0A687AB10B7B0A690C7A42EA4373EA
:101B30004A69406C496842EA847200EBC100C0E91E
:101B40000032002010BD0B7A4A690C8A42EA837287
:101B50000B7B006CDB06496843EA04431A4340F8F8
:101B60002120EEE730B590F85C50039C012D05D0A4
:101B7000016E41F004010166012030BD09010068D9
:101B800041EA820141EA430150F8802F214322F0CB
:101B90003F0211430160002030BD7047090304D5A6
:101BA0000068816921F0010181617047F0B590F80A
:101BB0005C400025022C03D0016E41F0080160E07A
:101BC0000468402946D0D4F89860360756D0D4F837
:101BD0009860F60104D5D4F88060F60500D501259B
:101BE000D4F89840C4F301246619C46C06EBC6050A
:101BF00004EBC504256815F080455560256843D081
:101C000025F06045156025682C4F05F0005595605E
:101C100020CC05F00045156134F8045BADB2D56108
:101C200054F8045CC5F30345D56054F8045C05F42E
:101C30008015556154F8045C05F40015956154F85D
:101C4000045CC5F30665156254F8045CED0F55623B
:101C5000002522E0D4F8906036070FD0D4F89060C9
:101C6000F60104D5D4F88060B60500D50125D4F876
:101C70009040C4F301246619846CB7E7016E41F407
:101C8000807101660120F0BDC5F38A45BAE700BF47
:101C900014F805C003F805C06D1CD2F80CC017F885
:101CA0000CC0AC45F4D80068402903D0C0F89C6053
:101CB0000020F0BDC0F89460FAE7000014B10008FD
:101CC00070472DE9F05F04460068016D426D01F434
:101CD000E05102EA0108016D426D01F0070102EADC
:101CE0000109016D426D01F0380102EA010A016D3E
:101CF000476D01F471010F40016D426D01F46021E7
:101D0000456D02EA010B016DCE43710607D4E9432C
:101D1000490604D4402101652046FFF7D1FFF005B4
:101D20000ED4E843C0050BD42068D0F8D820D0F8F2
:101D3000E01011404FF480720265204600F0E7F990
:101D4000B8F1000005D0216808654146204600F042
:101D5000E0F9B9F1000005D0216808654946204640
:101D600000F0B2F9BAF1000005D0216808655146CB
:101D7000204600F0B3F9B00509D4E843800506D445
:101D800021684FF400700865204600F0C3F9300662
:101D90000DD4E84300060AD42068D0F8D420D0F847
:101DA000DC10114080220265204600F0B1F9B00439
:101DB00009D4E843800406D421684FF40050086534
:101DC000204600F0A3F9300409D4E843000406D407
:101DD00021684FF400400865204600F096F9700431
:101DE0000AD4E843400407D421684FF480400865D2
:101DF000206E40F080002066BBF1000005D0216815
:101E0000086559462046FFF7C9FE27B120680765D7
:101E1000206E38432066206E002802D02046FFF74F
:101E2000BCFEBDE8F09F00002DE9F041040006D0A3
:101E3000DFF8E88194F85C00002518B107E0012084
:101E4000BDE8F08184F85D50204600F0EFF820688E
:101E5000816921F01001816100F016FC064603271C
:101E600005E000BF00F010FC801B0A2811D8206894
:101E700080690007F6D42068816941F00101816121
:101E800000F002FC06460BE000F0FEFB801B0A2877
:101E900006D9206E40F00100206684F85C70CEE721
:101EA00020688069C007EFD02068816941F0020195
:101EB00081612168414502D1594960680860207CF0
:101EC00001282068816937D041F040018161607C40
:101ED00001282068816932D021F480418161A07C91
:101EE0000128206881692DD041F4805181612068EA
:101EF0008169A26821F44071114381612068816980
:101F000021F0A40181612068016921F010010161C3
:101F1000E068012819D010B302281BD0206881691D
:101F200041F0800181612068016941F01001016187
:101F3000E06803280ED012E021F04001C6E741F42A
:101F40008041CBE721F48051D0E72068816941F0DE
:101F5000040103E02068816941F020018161207E55
:101F6000E26940066FF0FF0101EB0222A0F1007070
:101F70001043226AA38A521E10430A0202EB034353
:101F800018432368D861A068B0F5407F10D1D4E928
:101F90000A0301EB0321401E0843216B131303EBDB
:101FA00001110843A18C02EB014108432168C8607C
:101FB000206850F8C01FE26B11430160194820648B
:101FC000216851F8802FA38E22F4F81242EA0342CE
:101FD0000A60144970316164216851F8802F94F8C7
:101FE000383022F0706242EA03620A600D49B03173
:101FF000A1640D49E1640C49D83121650A49F031E9
:10200000616500F5547120C08842FCD3A565256642
:10201000012084F85C00002012E70000006400400A
:102020000065004000A4004088A5004010B598B0AD
:102030000446142111A8FEF795F944216846FEF7DD
:1020400091F91F492068884238D18014009000031C
:102050000C90684600F04EFC08B1FFF74AF91948A9
:10206000816D41F000718165816D01F00071169103
:10207000C16C41F00101C164C06C11A900F0010004
:1020800016904FF4C050119002201290002013902F
:10209000149009201590C00600F0C4F90022062112
:1020A000152000F08FFB152000F07FFB0022062199
:1020B000162000F087FB162000F077FB18B010BD4B
:1020C0000064004000100240034910B5884201D16D
:1020D00006F02CFC10BD000068010020704790F84D
:1020E0005C10012905D0016E41F004010166012058
:1020F0007047022180F85C1001688A6922F00102B1
:102100008A61002101660846704770477047704732
:1021100070477047704700002DE9F05F0546314871
:102120008946017801290CD00126804606704FF4BB
:102130007A7B5846FFF792F907004FF0000A03D068
:102140004BE00220BDE8F09F51464046C8F804A08D
:10215000254C226892050AD52168490505D52168D4
:1021600021F480612160032109E0067708E02268FC
:10217000520504D5216821F4806121600221017794
:102180002868012805D04FF0FF31C9F80010AE686B
:102190001CE06868FFF71CF95846FFF75FF907462F
:1021A000606920F00400606115E030466968FFF75F
:1021B0001DF95846FFF752F90700606920F4FD70D9
:1021C000606102D0C9F8006005E0761CD5E9020123
:1021D0000844B042E9D8FFF7CDF888F800A03846A7
:1021E000B0E700002800002000200240054901203F
:1021F0004A6942F000424A614969002900DA002038
:1022000070470000002002402DE9FF5F254C064684
:10221000904620789A4601280BD0012020704FF478
:102220007A7B5846FFF71AF907004FF0000904D0EF
:102230002AE0022004B0BDE8F09F4846C4F80490AC
:10224000194D2968490504D5286820F48060286064
:102250000220207726B1012E09D0022E07D00CE0F3
:10226000424653460198FFF7D5F8012612E0414651
:102270000198FFF7DDF8022E0AD05846FFF7EEF876
:102280004FEA0007FFF776F884F800903846D1E768
:102290004FF480265846FFF7E1F807466869B043D7
:1022A0006861EFE728000020002002400649002076
:1022B0004A69002A07DA054A8A60054A8A6049693C
:1022C000002900DA01207047002002402301674501
:1022D000AB89EFCD2DE9F84F00230126DFF828C1A7
:1022E0000F278AE006FA03F414EA01027ED023F0F5
:1022F00003056544AA46D5F808909D074FEA157E68
:1023000007FA0EF505EA090B0095B0F1904F05D0DC
:102310003E4DA84205D14FF001081CE04FF00008E7
:1023200019E03B4DA84202D14FF0020813E0394DAD
:10233000A84202D14FF003080DE0374DA84202D168
:102340004FF0040807E0354DA84202D14FF00508D0
:1023500001E04FF0060808FA0EF8D84526D1DFF85C
:10236000C080D8F8009029EA0209C8F8009008F166
:102370000408D8F8009029EA0209C8F80090DFF8AC
:10238000A08008F10C08D8F8009029EA0209C8F8E2
:102390000090A8F10408D8F800509543C8F8005000
:1023A000009ADAF808509543CAF80850D0F800802F
:1023B0004FEA4309032202FA09F248EA0208C0F888
:1023C0000080DD0800EB8505AA46D5F820804FEA9D
:1023D00043794FEAD96907FA09F528EA0508CAF8E6
:1023E0002080C5689543C560456800E004E0A543CA
:1023F00045608468944384605B1C31FA03F27FF487
:1024000071AFBDE8F88F00000000014000040048F3
:1024100000080048000C0048001000480014004864
:10242000000401402DE9F04FDFF82092002301263F
:102430000324A9F1040B85B00F2709F1040AABF1BD
:10244000040EFAE006FA03F52A407CD091F804C0A5
:102450000CF0030CBCF1010F02D0BCF1020F26D12D
:10246000D0F808C0CDF800C04FEA430C04FA0CF8CD
:10247000CDF810C0DDF800C02CEA080CCDF800C083
:10248000D1F80C80DDF810C008FA0CF8DDF800C0B7
:1024900048EA0C08C0F80880D0F804C02CEA050C03
:1024A0000D79C5F300159D4045EA0C0545600D7991
:1024B000ED43AD070ED0C5684FEA430804FA08FCA7
:1024C00025EA0C05D1F808C00CFA08FC4CEA050C0A
:1024D000C0F80CC00D7905F00305022D16D1DD08FA
:1024E00000EB850CCDF808C0DCF820805D074FEAD2
:1024F000D56C07FA0CF528EA05080D6905FA0CF504
:10250000DDF808C045EA0805CCF8205005684FEA18
:10251000430CCDF808C004FA0CFC25EA0C0591F830
:1025200004C00CF00308DDF808C008FA0CF848EA0B
:102530000508C0F800804D6815F4403F7CD0444D3C
:10254000D5F860C000E077E04CF0010CC5F860C041
:102550002D6E23F0030C05F0010500953D4D6544FB
:102560000295AD684FEA837C4FEA1C7807FA08FCB5
:1025700025EA0C05B0F1904F06D0DFF8DCC06045CD
:1025800005D14FF0010C20E04FF0000C1DE0DFF80A
:10259000CCC0604502D14FF0020C16E0DFF8C0C09D
:1025A000604502D14FF0030C0FE0DFF8B8C0604582
:1025B00002D14FF0040C08E0DFF8ACC0604502D156
:1025C0004FF0050C01E04FF0060C0CFA08FC4CEA49
:1025D000050C029DC5F808C0D9F80050CC46D1F8CA
:1025E000048095435FEAC82800D51543CCF8005015
:1025F000DAF80050D446D1F8048095435FEA882881
:1026000000D51543CCF80050DBF80050DC46D1F87B
:10261000048095435FEA883800D51543CCF8005014
:10262000DEF80050F446D1F8048095435FEAC838DC
:1026300000D51543CCF800505B1C0A6832FA03F54C
:102640007FF400AF05B0BDE8F08F00000804014042
:10265000001002400000014000040048000800484B
:10266000000C00480010004800140048426921EAAC
:1026700002030A4043EA0241816170470AB1816165
:102680007047816270470000014880687047000011
:102690001C00002002488168426811448160704734
:1026A0001C00002010B50024032000F0ABF80F2020
:1026B00000F008F808B1012401E000F047F82046D6
:1026C00010BD000030B505461B4887B0816D41F054
:1026D00010018165806D06A900F01000009001A82E
:1026E00000F03AFB00F058FB1449154AB0FBF1F139
:1026F0001448491E0260416040F2E7320021C0E9FF
:102700000321816001F075FA040012D10D4801F037
:10271000D9FA04000DD1362000F047F8102D07D269
:1027200000222946362000F04DF80748056000E0F9
:10273000012407B0204630BD0010024040420F0087
:10274000001000406C0400201C0000200D4808B55B
:10275000016E41F001010166016E01F0010100917D
:10276000816D41F080518165806D002200F08050C4
:1027700000900F21901E00F025F8BDE8084000F001
:10278000B1B800000010024000280DDB00F01F026D
:10279000012191404009800000F1E020C0F8801143
:1027A000BFF34F8FBFF36F8F7047002809DB00F036
:1027B0001F02012191404009800000F1E020C0F893
:1027C00000117047F0B40E4B1B680C46C3F3022394
:1027D000C3F10705042D00D90425191D072901D2CD
:1027E000002300E0DB1E012606FA05F1491E214008
:1027F00099409E40761E16403143F0BC04F0E8BB81
:102800000CED00E0064900F0070208684FF6FF03F0
:10281000184040EA0220034A104308607047000055
:102820000CED00E00000FA052B492C4B0A68322120
:102830004A432B4940B1B0F5007F086829D020F405
:10284000C06040F480602CE00868C0F3412002289A
:1028500004D051F8800F20F4807022E0D1F880007D
:1028600020F48070C1F88000086820F4C06040F453
:1028700000700860B2FBF3F0401C00E0401E4A69A3
:10288000520501D50028F9D1486940050AD5032031
:102890007047C0F34120022806D051F8800F40F461
:1028A0008070086000207047D1F8800040F480708C
:1028B000C1F88000086820F4C06040F4007008602F
:1028C000B2FBF3F0401C00E0401E4A695205DBD524
:1028D0000028F9D1D8E700004800002040420F004E
:1028E000007000400248816841F480418160704777
:1028F000007000402DE9F8430446006800269D4D15
:1029000000035ED5A86D0027C00008D4A86D40F074
:102910008050A865A86D012700F080500090DFF876
:102920005892D9F8001041F48071C9F80010FFF7EF
:10293000ABFE804606E000BFFFF7A6FEA0EB080056
:1029400002282BD8D9F80000C005F5D5D5F890009D
:1029500010F4407014D0216C814211D0D5F8900051
:10296000D5F8901020F4407041F48031C5F89010F3
:10297000D5F8901021F48031C5F89010C5F890007A
:10298000C00711D0FFF780FE804641F2883907E08A
:10299000FFF77AFEA0EB0801494501D903260BE0B9
:1029A000D5F890008007F3D5D5F89000216C20F47D
:1029B00040700843C5F890001FB1A86D20F080500A
:1029C000A8652078C00707D0D5F88800616820F096
:1029D00003000843C5F888002078800707D5D5F89C
:1029E0008800A16820F00C000843C5F88800207812
:1029F000400707D5D5F88800E16820F0300008438B
:102A0000C5F888002078000707D5D5F88800216927
:102A100020F0C0000843C5F888002078800607D55C
:102A2000D5F88800616920F440600843C5F8880043
:102A30002078400607D5D5F88800A16920F44050D9
:102A40000843C5F888002078000607D5D5F8880027
:102A5000E16920F440400843C5F888002088C0059B
:102A600007D5D5F88800216A20F440300843C5F81E
:102A700088002088800507D5D5F88800616A20F491
:102A800040200843C5F88800208840050FD5D5F8B8
:102A90008800A16A20F440100843C5F88800A06AA5
:102AA000B0F5801F03D1E86840F48010E86020880A
:102AB00000050FD5D5F88800E16A20F440000843EE
:102AC000C5F88800E06AB0F5800F03D1E86840F4EB
:102AD0008010E8602088C0040FD5D5F88800216BED
:102AE00020F040700843C5F88800206BB0F1807F6B
:102AF00003D1E86840F48010E86020884FF000615E
:102B000080040ED5D5F88800626B20F04060104339
:102B1000C5F88800606B884203D1E86840F48010F3
:102B2000E860208840040ED5D5F88800A26B20F01C
:102B300040601043C5F88800A06B884203D1E86864
:102B400040F48010E860208800040FD5D5F8880094
:102B5000E16B20F040500843C5F88800E06BB0F10D
:102B6000805F03D1E86840F48030E8603046BDE81B
:102B7000F883000000100240007000402DE9F0478B
:102B80000E4605004FF0000725D0DFF8AC81D8F8DD
:102B9000000000F00F00B0420CD2D8F8001021F075
:102BA0000F013143C8F80010D8F8000000F00F0002
:102BB000B04210D12968614CC80741F2883A5AD016
:102BC0006868DFF87C91032808D0022820682DD09F
:102BD000400500282CDB0120BDE8F087206880013B
:102BE000F9D5E06800F00302E068C0F30310401C70
:102BF000032A19D0534A00BFB2FBF0F0E268C2F3D7
:102C000006225043E268C2F34162521C5200B0FBFC
:102C1000F2F0484517D9A06810F0F00F0CD08807E3
:102C200011D5A86840B10EE0474AE5E78003D0E738
:102C300000F0D6F8484506D9A06820F0F00040F032
:102C40008000A0608027A068696820F00300084326
:102C5000A060FFF719FD814606E000BFFFF714FDF5
:102C6000A0EB090151453AD8A068696800F00C0052
:102C7000B0EB810FF2D12868810714D5400703D546
:102C8000A06840F4E060A0602878000705D5A0683F
:102C900020F4605040F4E060A060A068A96820F0D3
:102CA000F000084304E0802F03D1A06820F0F0007A
:102CB000A060D8F80010404601F00F01B14216D9CB
:102CC000016821F00F0131430160FFF7DDFC074689
:102CD00007E000BFFFF7D8FCC11B514501D9032015
:102CE0007AE7D8F8000000F00F00B042F2D128785F
:102CF000400705D5A068E96820F4E0600843A060BB
:102D00002878000706D5A068296920F4605040EAB9
:102D1000C100A06000F064F8A1680C4AC1F303117F
:102D2000515C01F01F01C84009490860094800686A
:102D3000BDE8F047FFF7C6BC00200240001002408B
:102D400000B4C4040024F40000127A004CB100085E
:102D5000480000201C0000200F2202600C4A9368EB
:102D600003F003034360936803F0F0038360936808
:102D700003F4E063C36092684FF4E06303EAD202B5
:102D800002610448006800F00F000860704700000E
:102D9000001002400020024005480649006889688A
:102DA000054AC1F30221515C01F01F01C840704780
:102DB00048000020001002405CB1000805480649A8
:102DC00000688968054AC1F3C221515C01F01F0106
:102DD000C840704748000020001002405CB1000865
:102DE000184910B58868C0F381021748012A0BD032
:102DF0008A684310C2F38102022A06D08A68C2F3AD
:102E00008102032A03D0002010BD184610BDCA68F5
:102E100002F00304CA68C2F30312521C032C02D04E
:102E2000B0FBF2F001E0B3FBF2F0CA68C968C2F38C
:102E300006225043C1F34161491C4900B0FBF1F047
:102E400010BD0000001002400024F4002DE9F843FA
:102E500004007AD02078F84DC00747D0A868E96808
:102E600000F00C0001F003010C2802D0082817D054
:102E700001E0032914D06068B0F5803F17D0B0F5A9
:102E8000A02F286817D020F480302860286820F40C
:102E9000802028606068E0B1FFF7F6FB064614E08A
:102EA0002868800322D560680028D2D01EE02868F8
:102EB00040F48030EDE740F480202860F7E700BF61
:102EC000FFF7E2FB801B642870D828688003F7D5E1
:102ED0000CE0FFF7D9FB064605E000BFFFF7D4FB87
:102EE000801B6428F0D828688003F7D420788007F6
:102EF0004CD5A868E96800F00C0001F003010C282B
:102F000002D004280DD001E002290AD0E068002890
:102F100028682BD040F480702860FFF7B5FB064688
:102F200019E02868400502D5E068002891D068685B
:102F3000217C20F0FE4040EA01606860BF480068E4
:102F4000FFF7C0FB002800D120E072E1FFF79CFBF7
:102F5000801B0228B8D828684005F7D56868217C0E
:102F600020F0FE4040EA016068600FE020F48070CD
:102F70002860FFF789FB064605E000BFFFF784FBEA
:102F8000801B0228A0D828684005F7D420780007C5
:102F900029D560690028D5F8940013D040F00100CD
:102FA000C5F89400FFF770FB064606E090E000BF0E
:102FB000FFF76AFB801B022886D8D5F894008007AB
:102FC000F6D510E020F00100C5F89400FFF75CFB97
:102FD000064604E0FFF758FB801B022878D8D5F896
:102FE00094008007F6D42078400761D5A86D0026AC
:102FF000C00008D4A86D40F08050A865A86D0126D7
:1030000000F0805000908E480168C90511D4016815
:10301000804641F480710160FFF736FB074604E00B
:10302000FFF732FBC01B022852D8D8F80000C005B9
:10303000F6D5A068012815D00528D5F8900016D03F
:1030400020F00100C5F89000D5F8900020F00400B1
:10305000C5F89000A06841F28838B8B1FFF714FBBA
:1030600007460EE0D5F8900040F00100F0E740F090
:103070000400C5F89000F5E7FFF706FBC11B4145CA
:1030800026D8D5F890008007F6D50CE0FFF7FCFABB
:10309000074604E0FFF7F8FAC11B414518D8D5F8F8
:1030A00090008007F6D41EB1A86D20F08050A8656E
:1030B0002078800629D5A0690028D5F8980013D07B
:1030C00040F00100C5F89800FFF7DEFA064606E07A
:1030D00075E000BFFFF7D8FA801B02286FD8D5F83B
:1030E00098008007F6D510E020F00100C5F89800A0
:1030F000FFF7CAFA064604E0FFF7C6FA801B02286B
:103100005DD8D5F898008007F6D4E069F0B3A968D7
:10311000C1F3810103295DD00228286820F0807066
:10312000286003D0FFF7B0FA04464BE0FFF7ACFA93
:10313000064604E0FFF7A8FA801B02283FD828685B
:103140008001F7D4F4E908016FF00F0202EB0111DE
:103150000843218A5204490802EB4151A26841EA1E
:1031600002210843217D4FF07E42490802EB416174
:103170000843217B40EAC160E968324A11400843B4
:10318000E860286840F08070286000E05EE0E86851
:1031900040F08070E860FFF777FA044605E000BF72
:1031A000FFF772FA001B022809D828688001F7D5BA
:1031B0004CE000BFFFF768FA001B022802D9032089
:1031C000BDE8F88328688001F4D4E8681E49084007
:1031D000E8603BE00128F3D0E868226A00F00301D0
:1031E000914226D1616A00F0F00209011039914242
:1031F0001FD1A26A00F4FE41B1EB022F19D194F85D
:103200002C2000F07841B1EBC26F12D1218E00F476
:10321000C00249084905A1F50011914209D194F86D
:10322000341000F0C06049084906A1F100718142E4
:103230000CD00120C4E70000001002401C00002058
:10324000007000400C809F01FCFFEEFE0020B7E7FD
:10325000704700002DE9FC410446424845F6C05144
:10326000002700680126B0FBF1F06421484301907B
:1032700000902068416821F0200141602168486881
:1032800000060BD5384820650098F8B1401E009024
:1032900094F85D000728F7D101980090486840062F
:1032A0000BD53248E0640098A8B1401E009094F815
:1032B0005D000728F7D101980090606D002580B16E
:1032C000496889070CD52A4981630AE0206E40F0DD
:1032D00040002066E0E7206E40F040002066EAE70C
:1032E0008563A06D38B121684968C90702D02149BA
:1032F000816300E08563206840684FF040088007E4
:103300000AD5606D40B1FEF72EFB20B1606D85637C
:10331000C4F8608000E0002620684068C00708D03C
:10332000A06D30B1FEF71FFBB8B1A06D8563C4F886
:10333000608096B1A4F84650E587206E40280FD0F3
:1033400025662068C168816800918068009001202E
:1033500084F85D002046FFF77BFF3846BDE8FC811E
:103360000127EEE7480000200956000885550008AF
:10337000055800088557000810B5040011D0022038
:1033800084F85D002068016821F04001016020465A
:1033900000F002F90020206684F85D0084F85C00EB
:1033A00010BD012010BD704790F85D00704700000F
:1033B00038B5016804464A688868C043430606D5A4
:1033C000C30704D1D3435B0601D4E16C05E0830756
:1033D00008D4D3431B0605D4216D01B02046BDE8B7
:1033E00030400847830603D5430601D5C30551D4B1
:1033F000D3439B064ED443060AD494F85D30032B86
:1034000049D0236E43F004032366CB688B68009396
:10341000830609D4236E43F0010323668B6800936F
:103420000B6823F040030B60C00506D4206E40F00B
:1034300008002066206880680090206E002829D04F
:103440002068416821F0E0014160012084F85D00BE
:10345000900701D4D00722D02068416821F00301F1
:103460004160114DA06D40B18563A06DFEF77BFA00
:1034700018B1206E40F040002066606D002809D031
:103480008563606DFEF76FFA002803D0206E40F070
:103490004000206638BDC8688868009038BD204666
:1034A000FFF781FF38BD00007357000870B50400B6
:1034B00009D0606A002540B125616561A56294F874
:1034C0005D0040B10CE0012070BD6068B0F5827F06
:1034D000F4D0E561F2E784F85C50204600F094F8FF
:1034E000022084F85D002068016821F0400101603D
:1034F000E1684FF4E062914201D9002001E04FF40D
:103500008050B1F5706F02D0914200D0A562A188C1
:10351000228901F4827102F404421143227C02F0F8
:1035200002021143227D02F001021143228B02F4B8
:1035300000721143227F02F03802114394F82020D8
:1035400002F080021143228D02F4005211432268DE
:103550001160A169042202EA114194F8242000F4C8
:10356000805002F01002114394F8342002F0080257
:103570001143A28902F47062114301432068416043
:103580002068C16921F40061C1612566012084F8C9
:103590005D00002070BD000010B502681548164996
:1035A00082420AD1086E20F480500866BDE81040BF
:1035B000E0214FF09040FEF78DBE104B10489A422C
:1035C00008D18A6D22F480428A659900FEF782FE56
:1035D00024200AE00B4B9A420BD18A6D22F4004260
:1035E0008A653821FEF776FE3320BDE81040FFF7EC
:1035F000CBB810BD00300140001002400038004040
:1036000000040048003C0040F0B587B00446142197
:103610006846FCF7A7FE3848256800223749022390
:103620000324052685421CD1086E40F480500866AC
:10363000086E00F480500590C86C40F00100C8642A
:10364000C86C02AD00F001000590E020CDE9000358
:1036500085E8540069464FF09040FEF7E3FE07B05E
:10366000F0BD274F2748BD421FD18D6D45F48045E1
:103670008D658D6D05F480450595CD6C45F0020591
:10368000CD64C96C02AD01F002010591B900CDE92C
:10369000001385E854006946FEF7C4FE00220521A8
:1036A0002420FFF78FF8242022E0174EB542D6D110
:1036B0008D6D45F400458D658D6D05F400450595CE
:1036C000CD6C45F00205CD64C96C029201F0020197
:1036D00005913821CDE900130621CDE90341694662
:1036E000FEF7A0FE002205213320FFF76BF8332000
:1036F000FFF75BF8B3E70000003001400010024024
:103700000038004000040048003C004010B413465C
:1037100090F85D20012A31D121B11BB184680422C7
:103720001CB106E0012010BC70474468B4F5827FEC
:103730001ED090F85C40012C20D0012480F85C4021
:1037400080F85D20002202660164A0F84430A0F8F1
:10375000463082638287C2870265C168B1F5E06F37
:1037600001684B680CD923F480534B6016490BE079
:1037700080F85D2010BC0A4600F076B90220D2E73E
:1037800043F480534B601149C1648168B1F5004F27
:1037900009D101680B6823F040030B6001680B68D6
:1037A00023F480430B6001680B685B0603D40B684D
:1037B00043F040030B6080F85C200068416841F0F2
:1037C000600141600020AEE7A95A0008CF5A000806
:1037D00000680549884202D00449884203D1044860
:1037E000006805F00BBB704700380040003C00400B
:1037F000180000202DE9FF5F1D46934604464FF058
:1038000001090E9EFEF740FF074694F85D006168CF
:10381000012806D0B1F5827F39D1A168B1BB042857
:1038200035D1019800287CD0BBF1000FFBD0002DD2
:10383000F9D094F85C00012829D04FF0010A84F8EF
:103840005CA094F85D00042802D0052084F85D0097
:103850004FF00008C4F86080C4F840B0A4F84650A7
:10386000A4F844500199A163E587A587C4F84C806A
:10387000C4F85080E0684FF4E061884201D8012D1F
:1038800009D92068426822F4805208E0FFE702204C
:1038900004B0BDE8F09F2068426842F48052426064
:1038A00020680268520603D4026842F040020260B7
:1038B000E0688842606846D908B1012D3BD1A06B11
:1038C00001882068C160A06B801CA063E08F401E4F
:1038D000E08730E02068816889070FD5E18F69B102
:1038E000B9F1010F0AD1A16B0988C160A06B801CDE
:1038F000A063E08F401EE0874FF0000920688168D8
:10390000C90711D0B4F8461071B1C068216C0880A5
:10391000206C801C2064B4F84600401EA4F84600C9
:1039200000E09EE04FF00109FEF7AEFEC01BB04282
:1039300001D3701C74D1E08F0028CBD1B4F84600BD
:103940000028C7D175E008B1012D6BD1E08F0128A7
:10395000A06B08D921680088C860A06B801CA06398
:10396000E08F801E07E0216800780873A06B401C80
:10397000A063E08F401EE08754E0206881688907DB
:103980001AD5E18FC1B1B9F1010F15D1E18F01292C
:10399000A16B07D90988C160A06B801CA063E08F70
:1039A000801E06E009780173A06B401CA063E08FC5
:1039B000401EE0874FF0000920688168C90728D0C1
:1039C000B4F8461029B3B4F84610012914D9C068D8
:1039D000216C0880206C801C2064B4F84600801E96
:1039E000A4F84600B4F84600012810D820684168C1
:1039F00041F4805141600AE0007B216C0870206C2A
:103A0000401C2064B4F84600401EA4F846004FF065
:103A10000109FEF739FEC01BB04202D3701C01D071
:103A200012E08EB1E08F0028A7D1B4F8460000283C
:103A3000A3D13A463146204601F05CFF50B1202028
:103A4000206684F85C800CE084F85DA084F85C80DB
:103A500003201DE784F85DA084F85C80206E0028B8
:103A6000F7D0012014E7000030B590F85D404568BC
:103A7000012C06D0B5F5827F29D185683DBB042C89
:103A800025D111B30AB303B390F85C40012C1ED0CA
:103A9000012480F85C4090F85D40042C02D005249D
:103AA00080F85D400024046681638387C3870264D5
:103AB000A0F84430A0F84630C168B1F5E06F08D9ED
:103AC0001449C1641449016509E0012030BD022098
:103AD00030BD1249C16412490165022B04D301684B
:103AE0004A6822F4805203E001684A6842F4805236
:103AF0004A6001680A68520603D40A6842F040022C
:103B00000A6080F85C400068416841F0E001416073
:103B1000002030BD6D54000809550008A35400086A
:103B20003B55000800680549884202D00449884294
:103B300003D10448006805F061B9704700380040BF
:103B4000003C0040180000207047704770477047E5
:103B500070477047F0B590F83C20012A3AD0012513
:103B600080F83C50022280F83D2003685A689C6827
:103B7000194E1A4FB34201D0BB4204D122F4700C4B
:103B80004A6842EA0C02DFF858C002EA0C02D1F897
:103B900000C04CEA020CC3F804C00268B2420DD067
:103BA000B2F1804F0AD00F4B9A4207D00E4B9A4287
:103BB00004D0BA4202D00D4B9A4204D1896824F055
:103BC00080031943916080F83D50002180F83C103B
:103BD0000846F0BD0220F0BD002C01400034014039
:103BE0008FFFFFFD0004004000080040004001403E
:103BF000704710B5040003D094F83D0010B107E001
:103C0000012010BD002084F83C00204600F022F87E
:103C1000022084F83D00211D206802F02BF90120CC
:103C200084F8480084F83E0084F83F0084F840009F
:103C300084F8410084F8420084F8430084F844008A
:103C400084F8450084F8460084F8470084F83D0075
:103C5000002010BD10B586B0044614216846FCF75C
:103C600081FB15492068884224D11448816D41F0B8
:103C700002018165816D01F002010591C16C41F085
:103C80000201C164C06C002100F002000590012017
:103C900000900220CDE90101CDE9031069460848F2
:103CA000FEF7C0FB002205211D20FEF78BFD1D2025
:103CB000FEF77BFD06B010BD00040040001002407E
:103CC0000004004890F83D10012901D00120704700
:103CD000022180F83D100168CA6842F00102CA6002
:103CE0000068104988420ED0B0F1804F0BD00E49C9
:103CF000884208D00D49884205D00D49884202D03B
:103D00000C49884207D181680B4A1140062906D028
:103D1000B1F5803F03D0016841F00101016000204E
:103D200070470000002C01400004004000080040E3
:103D300000340140004001400700010070B5044616
:103D400090F83C000025012814D0012684F83C603E
:103D5000022084F83D0022689068364B184020F419
:103D60007F409060086870282ED010DC10F00F0F94
:103D700003D021E04FF0020070BD4FEA2012072A65
:103D80001AD2DFE802F0525252524A3840002A4B0F
:103D9000C21A984249D009DCB0F5805F0DD0B0F569
:103DA000005F1CD0B0F1101F06D13EE0102A3CD0BD
:103DB000202A3AD0502A38D0012584F83D600020CE
:103DC00084F83C00284670BDCB68D1E90121206809
:103DD00002F0AEF82068816841F0770109E0CB6815
:103DE000D1E90121206802F0A3F82068816841F43C
:103DF00080418160E1E7CA684968206802F0ACF858
:103E00005021206806E0CA684968206802F0B5F8C9
:103E10006021206802F096F8CFE7CA6849682068F8
:103E200002F09AF840212068F4E722680146104623
:103E3000F0E7000088FFCEFF2000100070472DE95A
:103E4000F04104460068C66805694FF00007A907FD
:103E500013D5B10711D5F91E016101202077206823
:103E600080698007204602D0FFF7E8FF04E000F0F9
:103E7000B7F8204600F0B5F82777680716D5700721
:103E800014D521686FF004000861022020772068B3
:103E9000806910F4407F204602D0FFF7CFFF04E096
:103EA00000F09EF8204600F09CF82777280715D5EB
:103EB000300713D521686FF00800086104202077CF
:103EC0002068C0698007204602D0FFF7B7FF04E0F2
:103ED00000F086F8204600F084F82777E80616D52B
:103EE000F00614D521686FF01000086108202077D3
:103EF0002068C06910F4407F204602D0FFF79EFF83
:103F000004E000F06DF8204600F06BF82777E80732
:103F100008D0F00706D021686FF001000861204644
:103F200000F060F8280601D4A80408D5300606D5AC
:103F300021686FF4025008612046FFF706FEE8058D
:103F400008D5300606D521686FF4807008612046D8
:103F5000FFF7FAFD680608D5700606D521686FF0F0
:103F600040000861204600F047F8A80608D5B006D2
:103F700006D521686FF0200008612046FFF7E6FDB6
:103F8000E80208D5F00206D521686FF480100861B8
:103F90002046FFF7DDFDA80208D5B00206D521684E
:103FA0006FF4001008612046FFF7D1FD680208D5C4
:103FB000700206D521686FF4800008612046FFF783
:103FC000C8FD28020AD5300208D521686FF4000028
:103FD00008612046BDE8F041FFF70ABEBDE8F08168
:103FE0007047704700680349884201D1FEF752BB11
:103FF0007047000000100040704790F884100129BD
:1040000018D0012180F884102421C0F8881001689C
:104010000A680B6823F001030B6022F000510022B4
:104020004266036819602021C0F8881080F8842057
:10403000104670470220704770B50446D0F88C00D7
:104040000025202801D0022070BD69B162B1012095
:10405000E06600202067204602F0BEFDE06E0128E9
:1040600004D00125284670BD012070BD21681020B4
:104070000862216851E8000F40F0100041E800029A
:10408000002AF6D1EEE70000024A904201D1FCF787
:1040900081BD7047D8030020704770B5044690F882
:1040A000840001281DD0012084F884002420C4F855
:1040B000880020680568026822F00102026020681A
:1040C000826822F060620A438260204602F0C0F8F3
:1040D000206805602020C4F88800002084F884004F
:1040E00070BD022070BD70B5044690F884000128B0
:1040F0001DD0012084F884002420C4F888002068A2
:104100000568026822F0010202602068826822F0DD
:1041100060420A438260204602F09AF820680560F7
:104120002020C4F88800002084F8840070BD02209C
:1041300070BD70477047704770B50446216851E8FC
:10414000000F20F0C00041E80002002AF6D12068EC
:10415000083050E8001F21F4000140E80012002A56
:10416000F5D121688868030610464FF0200219D562
:104170002168083151E8003F23F0800341E8003511
:10418000002DF5D1E16F49B10F488863E06FFDF76D
:10419000EAFBB8B1E06F816B884713E0A4F85600E2
:1041A000A0670AE0A4F85600A067606EB0F1005F57
:1041B00003D1886940F010008861C4F88820204647
:1041C000FFF7B9FF002070BD196400080449884258
:1041D00004D1006808210162FDF746B8704700006D
:1041E000D80300202DE9F04103680446D869196816
:1041F0009A6840F60F0528424FF000054FF002067E
:104200000AD187067ED501F0200702F0805C57EACC
:104210000C0777D0616F42E1B64FDFF8DCC2174080
:1042200001EA0C0C57EA0C0C6CD05FEAC07C0CD095
:104230005FEAC15C09D54FF0010CC3F820C0D4F887
:10424000903043F00103C4F89030830709D5D307B9
:1042500007D023681E62D4F8903043F00403C4F8FA
:10426000903043070AD5D30708D026680423336269
:10427000D4F8903043F00203C4F8903003070CD513
:1042800001F020033B4308D0266808233362D4F8AA
:10429000903043F00803C4F8903003050BD54B0170
:1042A00009D526684FF400633362D4F8903043F0A8
:1042B0002003C4F89030D4F89030002B3DD0800615
:1042C00009D501F0200002F08051084303D0616F4E
:1042D00009B120468847D4F89000216889684906CA
:1042E00002D410F0280F2AD0204602F0A9F8206846
:1042F000806840061ED52068083050E8001F21F075
:10430000400100E021E040E80012002AF3D1D4F897
:10431000800078B179498163D4F88000FDF723FBF0
:1043200000280AD0D4F88000816B00E02046BDE868
:10433000F04108472046FFF749FFBDE8F0812046DD
:10434000FFF744FFC4F89050F7E7D4F86CC020277B
:10435000BCF1010F7ED15FEAC06C7BD55FEAC16C16
:1043600078D51020186220688068400651D5D4F8AE
:1043700080100A6850680004000C3ED0B4F85C302D
:1043800083423AD9A4F85E000868006880062CD4FD
:10439000216851E8000F20F4807041E80002002AF3
:1043A000F6D12068083050E8001F21F0010140E8F4
:1043B0000012002AF5D12068083050E8001F21F0D3
:1043C000400140E80012002AF5D1C4F88C70E5667F
:1043D000216851E8000F20F0100041E80002002A97
:1043E000F6D1D4F88000FDF789FA2667B4F85C00AE
:1043F000B4F85E10401A81B207E0B4F85C10814254
:104400009BD11068800698D526672046FFF73CFEB2
:1044100093E7B4F85C00B4F85E10401A81B2B4F8C7
:104420005E00002889D0002987D0226852E8000F5A
:1044300020F4907042E80003002BF6D12D4BDB43B3
:104440002068083050E8002F1A4040E8002CBCF1EA
:10445000000F00E00EE0F3D1C4F88C70E5666567EC
:10446000206850E8002F22F0100240E80023002BC3
:10447000F6D1C9E7C60209D5560207D54FF4801018
:1044800018622046BDE8F041FFF754BE03060AD586
:1044900001F0800302F40002134304D0A16F00294D
:1044A0007FF444AF49E7420611D54A060FD52046AE
:1044B000016851E8002F22F0400241E80023002B60
:1044C000F6D1C0F88870856700F066F935E702021A
:1044D00006D54A0004D52046BDE8F041FFF729BEC5
:1044E000C00195D5002993DA2046BDE8F041FFF7D9
:1044F000D3BD000001000010200100040964000881
:1045000010B5040003D0D4F8880010B107E00120F2
:1045100010BD002084F88400204600F027F82420F5
:10452000C4F888002068016821F001010160A06AD8
:1045300010B1204601F0AEFE204602F013FA012829
:10454000E6D02068416821F490414160206881688C
:1045500021F02A0181602068016841F001010160B9
:104560002046BDE8104001F0F9BE00002DE9F04101
:1045700098B00446142111A8FBF7F4FE44216846C4
:10458000FBF7F0FE2F4920682F4C07270025022655
:104590004FF09048884226D10120CDE900056846B9
:1045A000FEF7A8F908B1FCF7A4FE206E40F48040A5
:1045B0002066206E00F480401690E06C40F0010010
:1045C000E064E06CCDE9126500F0010016904FF454
:1045D000C060CDE91457119011A94046FDF722FFA4
:1045E00018B0BDE8F08119498842F9D168460096B3
:1045F0000295FEF77FF908B1FCF77BFEA06D40F451
:104600000030A065A06D00F400301690E06C40F022
:104610000100E064E06CCDE9126500F00100169045
:104620000C20CDE91457119011A94046FDF7FAFE70
:10463000002205212620FEF7C5F82620FEF7B5F852
:10464000CEE7000000380140001002400044004066
:1046500070472DE9F8430446D0F88800984616467E
:104660000D46202802D00220BDE8F883A5B19EB1F6
:104670000020C4F890002120C4F888001834FEF708
:1046800003F8A6878146E68754F8100C2027183CCB
:10469000B0F5805F02D003E00120E5E7206910B1AA
:1046A0002E46002510E000260EE08021204602F074
:1046B000D4FBC0B9DEB116F8010B21688862B4F8EA
:1046C0005600401EA4F85600B4F856004B464FF072
:1046D0000002CDF800800028E7D14FF040012046CD
:1046E00002F0BBFB40B1C4F888700320BCE735F88A
:1046F000020BC0F30800E0E7C4F888700020B3E7BD
:10470000D0F88830202B01D00220704721B31AB393
:104710000165A0F85420A0F8562000218167C0F858
:1047200090102121C0F88810426E4FF48051B2F1F0
:10473000005F826812D08A4201D1016909B312492F
:104740008167026852E8001F41F0800142E80013CF
:10475000002BF6D100207047012070478A4201D11A
:10476000016961B1094981670168083151E8002F89
:1047700042F4000241E80023002BF5D1EAE70449A6
:10478000F1E70449DCE70000A76D0008F56D0008BB
:104790003D6D0008E96C00080249884201D1FCF730
:1047A0004BBC7047D8030020FEE7000070B51248EC
:1047B000104901230160002141608160C1600374E0
:1047C000417481740E2504240522C561C0E90542A7
:1047D000C0E90824C0E90A250263C0E90D31C163BC
:1047E000FDF722FB002803D0BDE87040FCF781BD37
:1047F00070BD0000006400406801002010B5194A37
:104800000021012004F0AEFA174C164A0021A061E5
:10481000D83A164804F01EFB124A2060B43A002130
:10482000134804F017FB0F4A6060903A00211148CA
:1048300004F010FB0B4AA0606C3A00210E4804F013
:1048400009FB084AE060483A00210C4804F002FBEA
:10485000044A2061243A0021094804F0FBFA60610F
:1048600010BD000004B1000800000020395D000800
:104870001D5D0008DD5C0008A95D0008BD5D000845
:104880007D5D00082DE9F04186B014216846FBF7F4
:1048900069FD2F48C16C41F00401C164C16C01F095
:1048A00004010591C16C41F02001C164C16C01F0AB
:1048B00020010591C16C41F00101C164C16C01F09E
:1048C00001010591C16C41F00201C164C06C4FF05F
:1048D000904700F002000590002202213846FDF7C3
:1048E000CDFE012210213846FDF7C8FEDFF86480B6
:1048F000012241F242014046FDF7C0FE0225012699
:1049000000240095CDE90164694638460394FDF71B
:1049100089FD1020CDE9000669463846CDE90245FB
:10492000FDF780FD0095CDE901646946404603949A
:10493000FDF778FD4FF48250CDE900066946404608
:10494000CDE90245FDF76EFD06B0BDE8F08100003F
:104950000010024000040048124810B510490160E0
:104960004FF48271416000214FF47062C0E902127D
:104970000122C0E90412520282613022C0E90721FB
:1049800007224162C0E90A1201634163FEF78EFD0E
:10499000002803D0BDE81040FCF7ABBC10BD000000
:1049A00000300140CC010020124810B510490160D0
:1049B0004FF48271416000214FF4E062C0E90212BD
:1049C0004FF400720161C0E905122822C0E90721F5
:1049D00007224162C0E90A1201634163FEF766FDE6
:1049E000002803D0BDE81040FCF783BC10BD0000D8
:1049F0000038004030020020124810B51049016014
:104A00004FF48271416000214FF4E062C0E902126C
:104A10004FF400720161C0E905122822C0E90721A4
:104A200007224162C0E90A1201634163FEF73EFDBD
:104A3000002803D0BDE81040FCF75BBC10BD0000AF
:104A4000003C00409402002010B588B000241748B4
:104A500000940194029403940494059412490694DA
:104A60000160A921C0E9011440F2E731C0E9031453
:104A70008461FFF7BEF808B1FCF73BFC4FF48050AF
:104A8000009069460948FFF759F908B1FCF731FC75
:104A9000049404A905480694FFF75CF8002801D0A7
:104AA000FCF727FC08B010BD00040040F80200200D
:104AB000184810B5164901604FF4E13141600021FA
:104AC00081600C22C160C0E904128161C161016290
:104AD00041628162FFF714FD08B1FCF70AFC002176
:104AE0000C48FFF700FB08B1FCF703FC0021094864
:104AF000FFF7D3FA08B1FCF7FCFB0648FFF77DFA95
:104B0000002803D0BDE81040FCF7F3BB10BD000047
:104B10000038014044030020184810B516490160D0
:104B20004FF4E1314160002181600C22C160C0E995
:104B300004128161C161016241628162FFF7E0FCA0
:104B400008B1FCF7D6FB00210C48FFF7CCFA08B1FE
:104B5000FCF7CFFB00210948FFF79FFA08B1FCF7EB
:104B6000C8FB0648FFF749FA002803D0BDE810400B
:104B7000FCF7BFBB10BD000000440040D80300207C
:104B8000FEE7FEE7704700002DE9F84F1F4690460C
:104B900089465FEA000A57D0B9F1000F54D00020CF
:104BA00004464FF0550B0646CDF800002A4806EBA8
:104BB000460100EBC1052868401C10D0284604F0CF
:104BC000D1FE48B12CB169680098081AB0F1004FC5
:104BD00002D268682C460090761C5E45E6D31CB372
:104BE00094ED020AB8F1000FF8EEC00A9FED1B0A1F
:104BF00080EE801A8AED001AD4ED030AF8EEE00A7E
:104C000080EE801A89ED001A07D0D4ED050AF8EE7F
:104C1000E00A80EE801A88ED001AD7B110492068AA
:104C2000884214D1012013E09FED0E0AF7EE000A2E
:104C30008AED000AC9ED000AB8F1000F01D088ED35
:104C4000000A0FB1002038700020BDE8F88F002066
:104C500038700120F9E7000000F8010800007A44EC
:104C600031425A50000000002DE9F14F00262DED91
:104C7000040B4FF055083746DFF82C91DFF82CA1D4
:104C800034462DED048B8CB0F0EE418AB0EE609A84
:104C9000F0EE409A4CF2FA3B04EB440109EBC105FB
:104CA0002868401C31D0284604F05CFE38B127B19A
:104CB0006868801BB0F1004F01D26E680127641C48
:104CC0004445E9D3149818B3FDF7F0FADAF8181050
:104CD00041F04041CAF81810CAF810B00020009006
:104CE000089001203F21CDE909010B90694608A8F1
:104CF000FDF712FA0446FDF779FA5CB120460CB0D4
:104D0000BDEC048B05B0BDE8F08F4445DAD204E079
:104D10000220F4E7002426462746FF22182102A895
:104D2000FBF719FB224802900FB1761C00E0012628
:104D30009FED208A0396102129EE880A02A8BDEE75
:104D4000C00A8DED040A29EE080ABDEEC00A8DEDF9
:104D5000050A03F0A3FA28EE880A069004EB440142
:104D600009EBC106BDEEC00A8DED070AFDF79EFAFC
:104D7000DAF8181041F04041CAF81810CAF810B01B
:104D800002AD002405EBC40006EBC401D0E900230A
:104D90000020FDF739FA070002D1641C032CF1D37F
:104DA000FDF724FA3846AAE700F80108002002407F
:104DB00031425A5000007A44034800218171012297
:104DC000C271017270470000D80000200148008ABB
:104DD00070470000D8000020044A08B1D36A03607D
:104DE000002901D09089088070470000D800002079
:104DF0000348817911B9C079002800D0012070479B
:104E0000D80000200148807970470000D8000020B9
:104E1000014A1063D1817047D800002010B50029E5
:104E20000FD006280DD2EFF3108272B6054B00EBBF
:104E3000400003EB8000002A19C881E8190000D166
:104E400062B610BDF065002010B5064C012240216D
:104E50002046FDF713FC20460122BDE81040110357
:104E6000FDF70CBC000400482DE9F0479EB0002679
:104E700005960A960196029604961496039606964F
:104E800007960996199608960B960C9613960F9608
:104E90004FF4A170BE4D1296159616961896009076
:104EA00017960E961096B94B402229461196B9488E
:104EB00000F044FDB54AB84C1178217092F84121B8
:104EC000627050B1A52901D15A2A5DD0E069401C19
:104ED000E061A52901D15A2A56D04FF00008434677
:104EE0004022A9462946AB4800F0A6FDAB4D01275C
:104EF000B8F1000F4BD005F2D1114022A1F2811080
:104F0000FBF717FA05F21121A1F281104022824627
:104F1000FBF70FFA05F25121A1F2811040228046E1
:104F2000FBF707FA05F5677101AAA1F5537000F0C8
:104F3000A3F905AA05F59461504600F09DF909AA68
:104F400005F2A451404600F097F916AB09AA05A94D
:104F500001A800F059F90DF1040898E80F000FC5F9
:104F60000DF1140898E80F000FC50DF1240898E81A
:104F70000F0085E80F000DF15808203598E80F0064
:104F800085E80F00677234E04FF00108A7E7844816
:104F900090F8822000F582708DF8042090F882103D
:104FA00000F582708DF8141090F882008DF82400BE
:104FB0001AB111B108B1012000E000208DF85800AD
:104FC000607AB8B10FCD0DF1040888E80F000FCD5D
:104FD0000DF1140888E80F0095E80F000DF1240882
:104FE000203588E80F0095E80F000DF1580888E893
:104FF0000F00403DC2204FF4805A0090694B52464A
:105000004946694800F09AFC664A1178A17092F806
:10501000C120E27050B1A52901D15A2A27D0206AB7
:10502000401C2062A52901D15A2A20D000208046A8
:105030000346524649465C4800F0FEFCB8F1000FBA
:1050400017D0584940228131A1F203208046FBF756
:1050500070F912AA5549404600F00EF90DF14808C2
:10506000303598E80F0085E80F00A7720FE00120A7
:10507000DDE74E4890F882008DF84800A07A30B104
:1050800030350DF1480895E80F0088E80F000EAAAA
:1050900012A916A800F08CF80F98E062BDF8403015
:1050A000A3819DF838202AB10F98216B884201D343
:1050B000012000E0002022B1E1898B4201D30121CF
:1050C00000E00021E579BDB1256B042D02D3256BED
:1050D000AD0800E00025E789BF085AB10F9AAA423F
:1050E00008D2BB4206D2227A521CD2B22272052AC0
:1050F00008D3E671267205E0A2791AB950EA0102D6
:1051000000D0A771A27902B1012200B102200243AE
:1051100009B1042000E000200243E07900B108203A
:10512000024322820EA9002000F02EF916A90120C8
:1051300000F02AF901A9022000F026F905A90320B0
:1051400000F022F909A9042000F01EF912A9052097
:1051500000F01AF901A9022001F0E8FE05A90320D8
:1051600001F0E4FE09A9042001F0E0FE12A90120EB
:1051700001F0DCFE16A9002001F0D8FE0EA90520E2
:1051800001F0D4FE1EB0BDE8F0870000EC63002003
:105190000004004894020020D80000209C620020F7
:1051A000386600202E65002030020020446900206F
:1051B00010B5002827D0002925D0002A23D0037855
:1051C0001BB10B780BB1012300E00023137043786F
:1051D0000BB94B7803B10123537043684C682344E7
:1051E0005360037B0C7B234413730C8903899C421B
:1051F00004D91481887A9072C87A03E01381817A85
:105200009172C07AD07210BD30B5002833D0002919
:1052100031D0002A2FD0002B2DD004782CB10C785F
:105220001CB114780CB1012400E000241C704478F7
:105230001CB94C780CB9547804B101245C704468F2
:105240004D682C4455682C445C60047B0D7B2C44D9
:10525000157B2C441C730C890589AC4200D9084687
:1052600011890489A14200D9104601891981817AE6
:105270009972C07AD87230BD2DE9F04F002853D012
:10528000002951D0002A4FD091F882304FF0010B05
:10529000BBB100242646A246A146A0464FEA04031D
:1052A00001EB430C30F81350BCF88470ED1B00D5B3
:1052B0000025BCF8C470ED1B17EBA50736D50027F9
:1052C00039E0B1F880400023642C13D25FF0000471
:1052D00051F8245030F81460354441F82450641CCF
:1052E000202CF5D3B1F88000401C80B2A1F88000DA
:1052F000642810D30020642551F82040B4FBF5F653
:1053000001EB4004401CA4F88460A4F8C4302028B9
:10531000F2D381F882B091F882001070537053601C
:10532000138113739372D372BDE8F08FB7F5803F8A
:1053300001DB4FF6FF77BDB2ACF8C45014FA87F426
:10534000B54204D92E46C3F3870A03F00309082D9A
:1053500003D308F1010808F0FF085B1C202B9FD342
:10536000782C01D21E2E01D3012000E0002082F80B
:1053700000B050705460168182F80AA082F80B9039
:1053800082F80C80D0E7000030B500291CD0062838
:105390001AD20C780D8964F307024C7865F30F0379
:1053A00064F30F224C68097B61F31743EFF310811C
:1053B00072B6064D00EB400005EB800000298360CB
:1053C000C0E9002400D162B630BD0000F0650020C5
:1053D00070B5C0F30D0040F48041084603F07FFD36
:1053E00041EAC03080B200F051FC0A20FBF76AFFAE
:1053F0000021084603F073FD41EAC03080B200F09E
:1054000045FC04460A20FBF75DFF1149C4F30D0576
:1054100060040FD50120087044F20101084603F032
:105420005EFD41EAC03080B200F030FC0A20FBF79C
:1054300049FF0AE0C4F30E0003F051FDB0EBD43F86
:1054400001D0012000E000200870284670BD000057
:10545000CC0000200148FDF7ABBF00003002002067
:105460000148FDF7A5BF0000940200200168C9684B
:10547000026C1180016C891C0164B0F84610491E51
:10548000A0F84610B0F84610002909D101684A6812
:1054900022F040024A60C18F002901D100F020B9FA
:1054A0007047B0F84630026C0168012B13D9C96807
:1054B0001180016C891C0164B0F84610891EA0F8A7
:1054C0004610B0F8461001290FD101684A6842F42D
:1054D00080524A6009E0097B1170016C491C01642B
:1054E000B0F84610491EA0F84610B0F84610002942
:1054F00009D101684A6822F060024A60C18F002920
:1055000001D100F0EDB87047816B02680988D16065
:10551000816B891C8163C18F491EC187C18F00299E
:105520000AD101684A6822F080024A60B0F8461049
:10553000002901D100F0D4B87047C38F826B016895
:10554000022B07D31288CA60816B891C8163C18FCB
:10555000891E06E012780A73816B491C8163C18F32
:10556000491EC187C18F00290AD101684A6822F00B
:1055700080024A60B0F84610002901D100F0B0B8AE
:105580007047000038B504460068016821F040010A
:1055900001601C4845F6C0510068B0FBF1F0642181
:1055A000484300902068416821F040014160009824
:1055B00010B3401E0090206840684006F7D400BF3A
:1055C000FDF762F80090642300228021204600F05D
:1055D00001FB402500B12566FDF756F800906423D5
:1055E00000224FF4C061204600F084FA00B1256625
:1055F000072084F85D0038BD206E40F04000206632
:10560000DEE70000480000207CB50446334845F63C
:10561000C0510068B0FBF1F064214843019020685C
:10562000416821F080014160019800284CD0401E63
:105630000190206840680006F6D400BFFDF724F80A
:1056400002466421204600F055F9402500B1256648
:105650002068016821F040010160FDF715F84FF462
:10566000C0660090642300223146204600F042FAD2
:1056700000B1256620684168490621D5416821F0BE
:1056800040014160019820B3401E019020684068AD
:105690004006F7D4FCF7F8FF009064230022802135
:1056A000204600F097FA00B12566FCF7EDFF009068
:1056B000642300223146204600F01CFA00B1256622
:1056C000072084F85D007CBD206E40F0400020661D
:1056D000B4E7206E40F040002066DBE74800002081
:1056E00010B50446FCF7D0FF02462068416821F05F
:1056F000200141606421204600F0FCF818B1206EC2
:1057000040F020002066216E012029B184F85D0060
:105710002046FDF748FE10BD94F85D1084F85D004A
:105720000429204602D0FEF7FDF910BDFEF750F81F
:1057300010BD10B504460068416821F06001416069
:10574000FCF7A2FF02466421204600F099F818B148
:10575000206E40F020002066012084F85D00206E5D
:105760000028204602D0FDF71EFE10BDFEF730F8DF
:1057700010BD10B5806A0021A0F84610C187FDF762
:1057800012FE10BDF8B5846A2068016821F040015E
:105790000160A06D002585632068416821F001014A
:1057A0004160FCF771FF00906423002280212046B5
:1057B00000F010FA402600B12666FCF765FF009065
:1057C000642300224FF4C061204600F093F900B139
:1057D0002666606D10B1806B002812D1A4F8465087
:1057E000E587206E402800D025662068C168816862
:1057F000009180680090012084F85D002046FDF74C
:1058000027FDF8BDF8B5846A0025606D85632068C2
:10581000416821F002014160FCF736FF0246642135
:10582000204600F067F8402600B12666206801682F
:1058300021F040010160FCF727FF00906423002263
:105840004FF4C061204600F055F900B12666A06D06
:1058500010B1806B002812D1A4F84650E587206E65
:10586000402800D025662068C16881680091806862
:105870000090012084F85D002046FDF7E9FCF8BDAA
:105880002DE9F843044640684FF482761546894670
:105890004FF400474FF48068B04209D1A068B84285
:1058A00001D0404504D12068016821F04001016029
:1058B0004B46002280212046009500F08BF980B9EC
:1058C0006068B04214D1A068B84201D040450FD101
:1058D0004B4600224FF4C0612046009500F00AF9C3
:1058E00030B1206E40F0200020660320BDE8F88330
:1058F0000020FBE7F8B515460E460B46009204461D
:1059000000224FF4C05100F0F5F888B93346002268
:1059100080212046009500F05DF948B93346002209
:105920004FF4C0612046009500F0E4F8002804D050
:10593000206E40F0200020660320F8BD2DE9FF5FB7
:105940003A4DDDF838A01E469346074600212868E8
:1059500003F0DAF90028F9D03846FDF725FD0128D3
:1059600008D03846FDF776FC0021286803F0CCF912
:105970000028F9D0002259460198FCF77FFE5246D4
:1059800031463846FDF7C2FEDFF8A480294C78B1D5
:10599000012259460198FCF771FE3968414503D14F
:1059A000606A401C60623FE0A06A401CA0623BE06D
:1059B0003221286803F0A8F981460122594601984E
:1059C000FCF75CFE3A6806EB0A00B9F1000F0AD05A
:1059D000424518D16169491C61613178217010F824
:1059E000010C607017E03178424504D1217010F845
:1059F000010C607003E0A17010F8010CE070012050
:105A000004B0BDE8F09FA169491CA1613178A17083
:105A100010F8010CE0703846FDF71CFC00212868E6
:105A200003F072F90028F9D00020E9E718000020FF
:105A3000003C0040D80000202DE9F041174D0468DB
:105A4000AC4201D1164C01E0154C641C002513B189
:105A50002570BDE8F0812378FF2B01D25B1C2370F9
:105A6000DBB2052BF5D30646084611460122FCF7AA
:105A700005FE3046FDF7EEFB0A4F0021386803F0C3
:105A800043F90028F9D03046FDF776FC3046FDF7A3
:105A90000DFD022003F0FDF8DAE70000003C0040B5
:105AA000DC000020180000200168C968026C118029
:105AB000016C891C0164B0F84610491EA0F846101C
:105AC000B0F84610002901D1FFF733BE70470168D6
:105AD000097B026C1170016C491C0164B0F846101E
